:020000040800F2
:1000000000000220BD2F0008CD070008D10700081E
:10001000D5070008D9070008DD0700080000000028
:10002000000000000000000000000000E1070008E0
:10003000E507000800000000E9070008FD080008C7
:1000400001300008013000080130000801300008CC
:1000500001300008013000080130000801300008BC
:1000600001300008013000080130000801300008AC
:1000700001300008013000082D1800080130000888
:10008000013000080130000801300008013000088C
:10009000013000080130000801300008013000087C
:1000A000013000080130000801300008013000086C
:1000B000013000080130000801300008013000085C
:1000C000013000080130000801300008013000084C
:1000D000013000080130000801300008013000083C
:1000E000013000080130000801300008013000082C
:1000F000013000080130000801300008013000081C
:10010000013000080130000801300008013000080B
:1001100001300008013000080130000801300008FB
:1001200001300008013000080130000801300008EB
:1001300001300008013000080130000801300008DB
:1001400001300008013000080130000801300008CB
:1001500001300008013000080130000801300008BB
:1001600001300008013000080130000801300008AB
:10017000013000080130000801300008013000089B
:1001800001300008013000080000000000000000FD
:10019000844641EA000313F003036DD1403A41D392
:1001A00051F8043B40F8043B51F8043B40F8043B51
:1001B00051F8043B40F8043B51F8043B40F8043B41
:1001C00051F8043B40F8043B51F8043B40F8043B31
:1001D00051F8043B40F8043B51F8043B40F8043B21
:1001E00051F8043B40F8043B51F8043B40F8043B11
:1001F00051F8043B40F8043B51F8043B40F8043B01
:1002000051F8043B40F8043B51F8043B40F8043BF0
:1002100051F8043B40F8043B51F8043B40F8043BE0
:10022000403ABDD2303211D351F8043B40F8043B80
:1002300051F8043B40F8043B51F8043B40F8043BC0
:1002400051F8043B40F8043B103AEDD20C3205D390
:1002500051F8043B40F8043B043AF9D2043208D088
:10026000D2071CBF11F8013B00F8013B01D30B88FA
:1002700003806046704700BF082A13D38B078DD0D8
:1002800010F003038AD0C3F10403D21ADB071CBFAA
:1002900011F8013B00F8013B80D331F8023B20F814
:1002A000023B7BE7043AD9D3013A11F8013B00F84D
:1002B000013BF9D20B7803704B7843708B788370D5
:1002C0006046704788420DD98B1883420AD900EBEB
:1002D000020CBAB1624613F801CD02F801CD994281
:1002E000F9D170470F2A0ED8034602F1FF3C4AB1FC
:1002F0000CF1010C013B8C4411F8012B03F8012F88
:100300006145F9D1704740EA01039B0750D1A2F142
:10031000100370B501F1200C23F00F0501F1100E50
:1003200000F11004AC441B095EF8105C44F8105C4A
:100330005EF80C5C44F80C5C5EF8085C44F8085C01
:100340005EF8045C44F8045C0EF1100EE64504F11E
:100350001004E9D1013312F00C0F01EB031102F08C
:100360000F0400EB031327D0043C24F003064FEAEC
:10037000940C1E441C1F8E465EF8045B44F8045F18
:10038000B442F9D10CF1010402F0030203EB84033F
:1003900001EB840102F1FF3C4AB10CF1010C013B7D
:1003A0008C4411F8012B03F8012F6145F9D170BD80
:1003B00002F1FF3C03469BE72246EBE7830730B59B
:1003C00048D0541E002A3FD0CAB2034601E0013C87
:1003D0003AD303F8012B9D07F9D1032C2DD9CDB2C7
:1003E00045EA05250F2C45EA054536D9A4F110024A
:1003F00022F00F0C03F1200EE6444FEA121C03F129
:10040000100242E9045542E9025510327245F8D112
:100410000CF1010214F00C0F03EB021204F00F0CAC
:1004200013D0ACF1040323F003030433134442F864
:10043000045B9342FBD10CF003042CB1CAB21C4400
:1004400003F8012B9C42FBD130BD64461346002CBF
:10045000F4D1F9E703461446BFE71A46A446E0E79D
:10046000002A00F0AC812DE9F043D54D12F0010FC8
:10047000D5E90267D5E9004302F1FF3800F1040E27
:1004800040F039813EF9049CB9F1000FB8BFC9F1C1
:1004900000091FFA89FCACEB040CBCF1000FD4BFBF
:1004A000B946B14609FB0CFC04EBEC342C603EF978
:1004B000029CB9F1000FB8BFC9F100091FFA89FC0D
:1004C000ACEB030CBCF1000FD4BFB946B14609FB3D
:1004D0000CFC03EBEC336B603EF904CBA8F1020893
:1004E000BCF1000FB8BFCCF1000C1FFA8CF9A9EBDE
:1004F000040CBCF1000FD4BFB946B14609FB0CFC9B
:1005000004EBEC342C603EF9029CB9F1000FB8BF4B
:10051000C9F100091FFA89FCACEB030CBCF1000F18
:10052000D4BFB946B14609FB0CFC03EBEC33B8F180
:10053000FF3F0EF1040E6B60A4D112F00306A14D33
:10054000A14C4FF000034FF004074FD0012E15D0FF
:10055000022E08D02B68002B00F0F2805E1E2E6069
:1005600006680E6001232E68002E00F00881013E0F
:100570002E6050F8238041F8238001332E68002E2E
:1005800000F0BE80013E2E6050F8239041F8239089
:1005900001339A422AD1BDE8F083013E2E6050F823
:1005A000239041F823902E680133002E00F08380C1
:1005B000013E2E6050F8238041F823802E6803F11D
:1005C0000109002E55D0013E2E6050F829C041F897
:1005D00029C02E6803F102095EB3013E2E60033389
:1005E00050F829C041F829C09A42D4D02E68002E74
:1005F000D3D1D4F8886CD4F88CCC06F1FF3830F91C
:100600002360361106F5006EA8EB0C06C6F309064A
:100610000FFA8EF906B92770D4F88C8C04EB480ECB
:1006200008F10106C6F30906AEF88894C4F88C6C8C
:10063000B5E7D4F8886C06F1FF3E30F92960361131
:1006400006F500680FFA88FCD4F88C8CAEEB08062F
:10065000C6F3090606B92770D4F88CEC04EB4E08F3
:100660000EF1010ECEF30906A8F888C4C4F88C6C0C
:10067000B5E7D4F8886CD4F88C8C06F1FF3E30F9DD
:100680002960361106F5006CAEEB080E0FFA8CF6F9
:10069000CEF3090CBCF1000F00D12770D4F88CEC1C
:1006A00004EB4E080EF1010EA8F88864CEF309069B
:1006B000C4F88C6C89E7D4F8886CD4F88C9C06F16B
:1006C000FF3C30F92360361106F5006EACEB0906ED
:1006D000C6F309060FFA8EF806B92770D4F88CCC49
:1006E00004EB4C0E0CF10106C6F30906AEF8888443
:1006F000C4F88C6C5EE73EF904CC08F1FF38EFE6F5
:10070000D4F8886CD4F88C8C06F1FF3C30F9236067
:10071000361106F5006EACEB0806C6F309060FFAB3
:100720008EF906B92770D4F88CCC04EB4C0E0CF182
:100730000106C6F30906AEF88894C4F88C6C23E76A
:10074000D4F8883CB0F90060D4F88CCC03F1FF38C1
:10075000331103F50066A8EB0C030FFA86F9C3F317
:10076000090606B92770D4F88C3C04EB43085E1CDC
:10077000C6F30903A8F88894C4F88C3CF0E6D4F8D2
:10078000886CD4F88CCC06F1FF3930F9236036112F
:1007900006F5006EA9EB0C06C6F309060FFA8EF8F3
:1007A00006B92770D4F88C9C04EB490E09F10106B8
:1007B000C6F30906AEF88884C4F88C6CD9E6704795
:1007C000EC16002000000020C8090020704700BF80
:1007D000FEE700BFFEE700BFFEE700BFFEE700BF89
:1007E000704700BF704700BF704700BF10B53C4C5A
:1007F000204601F023F93B4B187801222270032890
:100800000FD8DFE800F043200213374B3748196850
:1008100041F300230422D9B2FFF7D0FD0020C4F831
:100820000600BDE810402E4801F052B8304A626020
:1008300000214FF6FF7C6180A4F808C02848BDE87D
:10084000104001F045B82B4A27482B49D2E9003E19
:100850007345B8BF7346DB11026831F91300C2F368
:10086000401100282170DCDB4300B3F5404F17DB5B
:10087000FF22C3F387134FF0000C4FF6FF71637133
:10088000A4F802C02271E1802281CAE716480268FA
:100890001348C2F3C0132370BDE8104001F018B82C
:1008A000B3F5004F0CDAB3F5804F14DBC3F38713B5
:1008B0004FF0000CFF21E371A4F802C0A171B0E772
:1008C000C3F387104FF6FF7E0023207120726380F0
:1008D000A4F806E0A5E700229811A270A071A0E795
:1008E000E01600200357002008570020E2160020E1
:1008F0000000FFFFEC1600200430000810B5094A84
:10090000094C136820460133136001F0C7F8A07842
:100910007F2802D1054901220A70BDE81040FFF787
:1009200065BF00BF0857002000570020FC5600207C
:100930002DE9F041684C05460E4601F065FEF320B6
:1009400001F072FE2368B3F1006F00F0BF806348CE
:100950002268824200F0B580614927688F4200F02A
:10096000AB80604B2068984200F0A1805E4922680D
:100970008A4200F097805D4F2368BB4200F08D8073
:100980005B482168814200F083805A4F2268BA4256
:1009900079D0594B2068984270D0584927688F42C7
:1009A00067D0574B22689A425ED0564821688142F0
:1009B00055D0002E51D055F8041B206801F0D0FE10
:1009C000771E2068C7F3810804270430BE422060E8
:1009D00043D9B8F1000F1FD0B8F1010F12D0B8F110
:1009E000020F07D055F8041B01F0BAFE206804304E
:1009F0000827206055F8041B01F0B2FE206804307F
:100A00000437206055F8041B01F0AAFE2068043763
:100A10000430BE42206020D9A846103758F8041B85
:100A200001F09EFE2068D8F800100430206001F02C
:100A300097FE2068A9680430206001F091FE2068CC
:100A4000E9680430206001F08BFE2068BE4200F1AE
:100A5000040005F110052060DED8BDE8F081022118
:100A6000582001F043FEA4E70221502001F03EFE91
:100A70009BE70221482001F039FE92E70221402045
:100A800001F034FE89E70221382001F02FFE80E7D3
:100A90000221302001F02AFE77E70221282001F010
:100AA00025FE6DE70221202001F020FE63E70221F0
:100AB000182001F01BFE59E70221102001F016FE5C
:100AC0004FE70221082001F011FE45E70221002036
:100AD00001F00CFE3BE700BF2402002000400008AC
:100AE0000080000800C000080000010800000208A3
:100AF00000000408000006080000080800000A08BA
:100B000000000C0800000E0830B585B0002101A8D7
:100B100000F0EAFF19481A4C00F0B0FE194B1A48D1
:100B2000442202250021C3E90225C3E9001100F097
:100B30008DFF2846012102F0D7F801254FF0012052
:100B4000CDE9025002A9204601F02AFE294620469E
:100B500001F03EFF0D4C011E18BF01214BF6803203
:100B6000204600F0C5FC0A4A2021204600F00AFD7C
:100B700001A800F0C1FF05B030BD00BFE0160020A5
:100B800000040240EC16002000570020280200203C
:100B90006104000838B5154D154C284644F620610F
:100BA00001F08EFA08231A4620464FF0005100F05B
:100BB000DFFFD4F8883C0F48C4F88C3C0023038046
:100BC000D4F8100DC4F8140D0B490C4AA4F8843461
:100BD000A3602370A361236110242B70A5F80E314C
:100BE00085F80C41064D0D60137038BDB408002027
:100BF000C809002020020020240200200357002002
:100C0000008000082DE9F84FFFF7C4FFFFF77CFFD5
:100C100070484FF4807101F0DBFE002846D16E4C25
:100C2000DFF8C481DFF8CCA1DFF8CC912378042B66
:100C300024D0D4F88C2CD4F8881C501A10F4787F67
:100C40003DD0D4F88C5CD4F8886CAF1BC7F3090294
:100C500072B934E0012B00F0B98001F0A1F8D4F8AA
:100C60008C3CD4F8881C581AC0F309053DB323788E
:100C70002046002BEED101F035F8F0E7574AD4F8C2
:100C8000143DD4F8103D4FF0020C00218AF800C04A
:100C90001170524D2E78002EFBD0FFF77BFFC5E779
:100CA000052863D1D4F8143DD4F8103D4C4800F029
:100CB000E5FC01F0EFFA4B4801F02AFBFEE7D4F81F
:100CC000146DD4F8107DF21B5006AFD0464D6E1C4B
:100CD000D4F8103DE118013303F07F0791F8901C20
:100CE000C4F8107D284601F049FA04280746D7D8F1
:100CF000022F4FF4807231464FF00100BED835D13B
:100D0000B9F800B0394B8AF800000BF03F0C03EB48
:100D10000C20FFF73DFA0BF101021FFA82FBA9F844
:100D200000B01BF03F0B4FF000024FF010004FF0EF
:100D3000030123D0D4F8107DC4F8147DD4F8143DF9
:100D4000D4F8107D88F80C01DB1B294888F80020B6
:100D50005B06A8F80E212170C4F87804C4F8740466
:100D6000C4F87C24A4F88424B2D15FE7D4F8147DBD
:100D7000D4F8103DF81A4106AAD157E78E461B4811
:100D80008AF800E04FF48041FFF7D2FDD4F8882CB8
:100D9000C4F88C2CD4F8101DC4F8141DD4F8143DDC
:100DA000D4F8100D88F800B01022191A88F80C2118
:100DB0004A06A8F80EB1A4F884B4C4F808B02770A5
:100DC000C4F818B0C4F810B082D12FE700F0B6FF15
:100DD00045E700BF00040240C8090020FC5600207F
:100DE0002802002000800008B4080020FC16002023
:100DF00000FCFFFF035700202002002030B5012136
:100E000083B0224C224D062001F06EFF214B694633
:100E100020464FF44062CDE9002301F0C1FC20469A
:100E200004220A2101F0E0FD204604220B2101F0FA
:100E3000DBFD40F20223694620464FF47042CDE9C3
:100E4000002301F0ADFC694628464022009201F0E3
:100E5000A7FC204605220C2101F0C6FD20460522F4
:100E60000D2101F0C1FD204605220F2101F0BCFD3E
:100E7000204605220E2101F0B7FD28460522062155
:100E800001F0B2FD012003B030BD00BF00040240FC
:100E9000000802400202010070B5002084B0144630
:100EA0000D4601F01BFF002001F0C8FE4BF6803319
:100EB0009C420CD04AF6444084426BD0B4F5FA4FC1
:100EC0006ED03A498C425FD0002004B070BD03213F
:100ED0004FF4817001F0A8FE012001F0AFFE3B202D
:100EE00001F032FF4FF4805648BB3B2001F02CFF4D
:100EF00002463B201ABB01F027FF03463B20F3B913
:100F000001F022FF01463B20C9B901F01DFF024656
:100F10003B20A2B901F018FF03463B207BB901F04A
:100F200013FF01463B2051B901F00EFF02463B2062
:100F30002AB901F009FF10B9083ED6D1C4E7012152
:100F40004FF4804001F0DCFE194801F017FF002D3E
:100F50004FF0000014BF4FF4007500256946ADF84E
:100F60000200ADF80400ADF80C0011480294ADF891
:100F70000050ADF8065001F069FF0E48694601F0D7
:100F8000EBFF012004B070BD042140F2891001F094
:100F90004BFEA1E7062140F20F1001F045FE9BE752
:100FA00004214FF4D57001F03FFE95E70077010072
:100FB00000380040003400402DE9F041A84C0F46B5
:100FC00020464FF40031164601F012FE4FF49615FC
:100FD000D8B34FF40031204601F00AFE03464FF427
:100FE000003120468BB301F003FE02464FF400317E
:100FF000204652B301F0FCFD03464FF40031204679
:101000001BB301F0F5FD02464FF400312046E2B17A
:1010100001F0EEFD03464FF400312046ABB101F084
:10102000E7FD02464FF40031204672B101F0E0FDC9
:1010300003464FF4003120463BB101F0D9FD20B109
:10104000083DC6D10020BDE8F081854D854C28467D
:10105000012101F095FD2146284601F0BBFD4FF42A
:101060008058D0BB2146284601F0B4FD02462146F7
:10107000284692BB01F0AEFD03462146284663BBDD
:1010800001F0A8FD02462146284632BB01F0A2FD30
:1010900003462146284603BB01F09CFD024621463B
:1010A0002846D2B901F096FD034621462846A3B949
:1010B00001F090FD02462146284672B901F08AFDF2
:1010C00058B9B8F10808BDD02146284601F082FD84
:1010D000024621462846002ACCD06148624C05468B
:1010E0000022342101F068FD2146284601F072FDFE
:1010F0004FF4805890BB2146284601F06BFD034613
:101100002146284653BB01F065FD0246214628468C
:1011100022BB01F05FFD034621462846F3B901F0EA
:1011200059FD024621462846C2B901F053FD034647
:101130002146284693B901F04DFD02462146284636
:1011400062B901F047FD03462146284633B901F054
:1011500041FD18B9B8F10808CDD173E7404D434CB3
:10116000C6F3002141EA4707F9B2284601F030FDF5
:101170002146284601F02EFD4FF4805788BB2146BA
:10118000284601F027FD0246214628464ABB01F0C9
:1011900021FD0346214628461BBB01F01BFD0246EC
:1011A00021462846EAB901F015FD034621462846A6
:1011B000BBB901F00FFD0246214628468AB901F06D
:1011C00009FD0346214628465BB901F003FD0246AE
:1011D000214628462AB901F0FDFC10B9083FCED1BE
:1011E00030E71F4D214CF1B2284601F0F1FC2146B9
:1011F000284601F0EFFC4FF48056C8BB2146284634
:1012000001F0E8FC0746214628468FBB01F0E2FCCE
:101210000346214628465BBB01F0DCFC0246214622
:1012200028462ABB01F0D6FC074621462846FFB9CE
:1012300001F0D0FC034621462846CBB901F0CAFC98
:101240000246214628469AB901F0C4FC07462146C9
:1012500028466FB901F0BEFC50B9083ECED1F1E688
:1012600000580040010003008200070080000700D2
:10127000204C214D2146284601F0BAFC4FF4961629
:1012800088BB2146284601F0B3FC03462146284688
:101290004BBB01F0ADFC0246214628461ABB01F0CB
:1012A000A7FC074621462846EFB901F0A1FC0346FA
:1012B00021462846BBB901F09BFC02462146284640
:1012C0008AB901F095FC0746214628465FB901F02E
:1012D0008FFC0346214628462BB901F089FC10B942
:1012E000083ECED1AEE60448012101F057FC0120B2
:1012F000BDE8F081040000100058004070B51546AC
:101300000E4600220F210446FFF756FE08B90020C2
:1013100070BD172200212046FFF74EFE0028F6D0B0
:10132000172201212046FFF747FE0028EFD00022B8
:1013300002212046FFF740FE0028E8D000220321CA
:101340002046FFF739FE0028E1D012220421204672
:10135000FFF732FE0028DAD0002205212046FFF7F1
:101360002BFE16B30028D2D0622206212046FFF7BA
:1013700023FE0028CBD0022207212046FFF71CFEC7
:101380004AF644418D420CBF202200220028BED0E4
:1013900008212046FFF710FE0028B8D02046002282
:1013A000BDE870400921FFF707BE0028AFD04222F8
:1013B00006212046FFF700FE0028A8D04222072180
:1013C0002046FFF7F9FDB5F5FA4F12D009DD4AF6D0
:1013D00044439D420BD0084A95420CBF1C22002278
:1013E000D4E7B5F5FA5F14BF00220C22CEE7202225
:1013F000CCE71822CAE700BF007701002DE9F84FBB
:10140000354E044601214FF4001001F06DFC00211F
:10141000304601F0CFF8304601F00AF800252F4A97
:10142000A2614FF6FE734FF4806B4FF4006A4FF4E5
:1014300000594FF480784FF400374021C4E9093552
:10144000C4E91055C4E91255C4E90CA9C4E90E87D2
:1014500030466561183EE561C4F82CB0216204F1A4
:10146000140101F07BF82946304601F0A3F830461C
:1014700000F0DEFF1A4B6566C4E91E75C4E9165517
:10148000C4E92055C4F888504FF6FE704FF0C0658F
:10149000C4E91453C4E91ABA2066C4F87090C4F8B9
:1014A000748004F15001304601F058F830460D4E7A
:1014B000012218214FF4804401F086F80A48346074
:1014C0000122022101F070FD01220848114601F0BD
:1014D0006BFD0120BDE8F88F706002400C380040C1
:1014E0000C34004000E100E00038004000340040CF
:1014F00070B51F4B42601860002384B00361017017
:1015000004460E461546FFF779FC10B9002004B0DA
:1015100070BD01214FF4800001F0F2FB154801F08D
:1015200077FA154A154B1348CDE900236946144A4A
:1015300002924FF48043ADF80C3001F09FFA0D4851
:10154000012101F00FFB2A4631462046FFF7A4FC9B
:101550000028DBD02A4631462046FFF7CFFE002880
:10156000D4D0204604B0BDE87040FFF747BF00BFAD
:101570000457002000580040A08601000000FFBF73
:10158000330000042DE9F04117460E4601220921DF
:101590000446FFF711FD0546002849D0202E4AD801
:1015A00023788BB9DFF8D0804FF48051404601F0AA
:1015B0000FFA0028F8D1DFF8C0804FF48051404680
:1015C00001F006FA0028F8D026482761818B4A05E9
:1015D00044D52548828B53053CD5207804F18C07EF
:1015E00004F56373E761A36550B961684BF6803C0D
:1015F00061452CD01D4A914226D0B1F5FA4F1ED03C
:10160000B000012704F1140160622066A66018484A
:10161000E76000F0A3FF174804F1500100F09EFFBF
:101620001348012100F0C6FF1248012100F0C2FF5B
:101630002846BDE8F08100252846BDE8F08106EB8C
:10164000460398000327DDE730010427DAE7F000BE
:101650000227D7E7012101F071FCBEE7012101F06B
:101660006DFCB6E700380040003400400077010010
:1016700070600240586002400004024008B505480E
:10168000002100F097FFBDE808400348002100F06A
:1016900091BF00BF70600240586002400369002B98
:1016A00000F0B9802DE9F047D0E9022502FB01F1F5
:1016B000044605FB01F0810001F18C0601F5637021
:1016C0002044264495B15700012F0FD980460123AD
:1016D00000E0E56803FB05F5013330F9152028F833
:1016E000022FA268B3EB420FF3D323693146984728
:1016F000E368002B00F08D80A0684700A7F1020985
:1017000006EB800119F0070007F1FF3270D002FBF1
:1017100003F331F902AD26F813A00128E3684A4625
:1017200066D0022827D003281DD0042813D005280E
:1017300009D0062870D102FB03F331F9027D26F8A7
:101740001370E368013A02FB03F331F902CD26F886
:1017500013C0E368013A02FB03F331F902ED26F806
:1017600013E0E368013A02FB03F331F9028D26F836
:101770001380E368013A02FB03F331F9029D26F876
:101780001390013AE36833E0E06831F9049C00FB10
:1017900003F0013B26F81090E06800FB03F331F9F9
:1017A000060C26F81300E36831F9088C07FB03F3F5
:1017B000083A26F81380E76831F90A3C07FB0EF077
:1017C00026F81030E76831F90CEC07FB0CF026F82E
:1017D00010E0E36831F90E7C03FB05F526F815707F
:1017E000E56831F9100D05FB0AFC26F81C00E368DA
:1017F00031F9020C02FB03F3D71E26F81300531E27
:10180000A2F1040EA2F1050CA2F10605A2F1070A4D
:10181000BAD1BDE8F087704702FB03F331F9025DEE
:1018200026F8135009F1FF32E36884E708B5114B3D
:101830001A6812F0C05F05D10E4B1A6812F0A05F53
:101840000DD108BD4FF0C0510B48996000680121CF
:10185000FFF724FF074B1A6812F0A05FF1D04FF09A
:10186000A05105489960BDE8084000680021FFF7D5
:1018700015BF00BF006002400457002030B50121B1
:1018800083B00446022001F02FFA0121042001F068
:101890002BFA40F201154FF4087369460A48CDE966
:1018A000003500F07DFF302208486946CDE900256B
:1018B00000F076FF0020C4F80200C4F80600207093
:1018C000607003B030BD00BF000402400008024059
:1018D0002DE9F041427884782032D5B20746457030
:1018E0001CB1A5428CBF00240124B97919B18D42E5
:1018F00098BF44F00204F878A300DEB218B1854224
:1019000098BF46F00106FA791AB1954298BF46F0A1
:1019100002063979B400E0B219B18D4298BF40F0A7
:1019200001003B7A1BB19D4298BF40F002007E79D6
:101930008200D4B21EB1B54298BF44F00104797A56
:1019400019B18D4298BF44F002043A48394EDFF88D
:10195000E8800022102101F041F808253AE0002239
:101960002021404601F03AF80122944020213046DF
:1019700001F034F8E4B200226B1E202130469DB203
:1019800001F02CF8220654BF0022012220214046FB
:1019900001F024F8012294402021304601F01EF885
:1019A000E4B26B1E0022202130469DB201F016F8F1
:1019B000230654BF002201222021404601F00EF8E8
:1019C00030460122202101F009F8681E640085B22A
:1019D000E4B215B300223046202100F0FFFF2006BC
:1019E0004CBF012200222021404600F0F7FF0122D7
:1019F00094402021304600F0F1FFE4B22021002283
:101A0000304600F0EBFF013D2106ADB2A7D5012223
:101A10002021404600F0E2FFA6E7064801221021FF
:101A200000F0DCFF3A780448BDE8F0414FF4007163
:101A300000F0D4BF00080240000402400023C0F8B8
:101A40000230C0F806300370704700BF30B5012186
:101A500083B00446022001F047F90121042001F07F
:101A600043F94FF001254FF4807369460948CDE9E9
:101A7000003500F095FE4FF4406207486946CDE915
:101A8000002500F08DFEFF2020706070A07003B074
:101A900030BD00BF0004024000080240F8B5104FFE
:101AA000057804466A004FF40061384655B200F0EC
:101AB0008FFF66782843730020704FF480613846AA
:101AC0005FB200F085FFA17838434A0060704FF4A0
:101AD0008071044855B200F07BFF2843A070F8BD28
:101AE000000802400004024001B970474FF4004171
:101AF0004FF0006000F092BC4FF0E023064A10B4B3
:101B0000F020064C5C61002182F8230007229961D5
:101B10001A615DF8044B704700ED00E03F90020051
:101B200038B5002504464FF400728563C56305642B
:101B300045648564C564056545658565C565056657
:101B400045668566C56629467030FEF737FC4FF45A
:101B50000072294604F51C70FEF730FCB4F880349E
:101B60002561A561A4F87054A4F8823438BD00BF83
:101B700030B4154C54F82220B2F90050C561B2F9C6
:101B800002500562B2F904504562B2F9065085620E
:101B9000B2F90850C562B2F90A500563B2F90C20D7
:101BA000A0F8803400244FF40023C0F88C4C42632A
:101BB000C0F8884C4161C0F8144D4360C0F8104D26
:101BC00030BCFFF7ADBF00BF083200082DE9F0417F
:101BD000B0F88074B0F870647D1E06F58074012D35
:101BE000A4B277DD4FF0000C0122E646A31A5FFA9B
:101BF00083F800EB48030132B3F97080B3F9703217
:101C000092B2AA42C6449C44F0DB71B38CEAEC73F6
:101C10008EEAEE71A3EBEC78A1EBEE75454405EB93
:101C200085029308E71BBCB2A11C00EB4608CDB2AD
:101C30003835B8F97020B8F9701230F9157072445F
:101C40006144D21BC91B82EAE27581EAE177A5EB08
:101C5000E278A7EBE175A844984511D9B0F88274F1
:101C600001378C46A0F8827496466FEA0C00C10FCB
:101C700088B2BEF1000FB4BF08B20230BDE8F081F7
:101C80000134E1B2FF3600EB4108F2B200EB42074B
:101C9000B8F97040B8F97052B7F97020B7F970729E
:101CA00004EB0E0105EB0C06891AF61B81EAE178BC
:101CB00086EAE675A8EBE174A5EBE67214449C4253
:101CC000D3D9B0F882E40EF1FF33B446A0F88234E1
:101CD0008E46CAE709B90320D0E700239C469E46FA
:101CE000A0E700BF10B415E0D0F8883C44688168D4
:101CF00000EB430C0131BCF988240133A2EB242C06
:101D0000C3F30903A444B1F5805FC0E901C1C0F881
:101D1000883C0BD2D0F88C3CD0F8882C991AC1F3AF
:101D20000904002CE0D15DF8044B70470024012128
:101D3000C0E9024401705DF8044B7047F0B400251F
:101D40001BE0D0F8883C4468816800EB4306013111
:101D5000B6F98874C668A7EB242202FB02FC0133A3
:101D600006EB2C17C3F309032244B1F5805FC0E9E9
:101D70000217C0F8883C42600AD2D0F88C3CD0F8F8
:101D8000882C991AC1F30904002CDAD1F0BC7047F1
:101D9000B7F5F03FC0E90255EFD302250570F5E72E
:101DA0002DE9F84FC44D044604F1540A04F15809D2
:101DB000D4F88C3CD4F8882C981AC0F30901002977
:101DC00000F05A81D4F8882C6368D4E9046B04EBE2
:101DD00042070BEB0608B7F98804C4F810804FEAF5
:101DE000186CA0EB23210CF140060B44F7B26360A2
:101DF00035F9173035F91C00D4E9077E5B4201FB49
:101E000003F31E1200FB01F1A06DE36B666509127E
:101E100007FB06F600FB0E6C01FB07F7606AE66D38
:101E2000A1630132216C03FB0E77C2F3090206FBAA
:101E300000CE236EC4F8882C01FB007CA26A676C7C
:101E4000E06A666E216B03FB02EE07FB02C3A26C25
:101E500006FB00EC02FB0037A66EE36C606B06FB32
:101E600001CE03FB017CE16E276D01FB00E607FB61
:101E700000C7182251464846FEF724FA182204F1FA
:101E8000380104F13C00FEF71DFA002E2278B4F868
:101E90007014B4BF7B423B46002FB4BF7042304643
:101EA000022A18BF181AA36908BFF01B03EB4303EB
:101EB00003444FEAA30C04EB41000BEBE30B08EBEC
:101EC000CC083F123612C4E9048BC4F818C0A0F83D
:101ED0007070A0F87062B4F882340131581EC9B233
:101EE00083B2A4F87014A4F88234002B74D1B4F82F
:101EF0008064A4F88264032A7DD0052A5DD0022A7A
:101F00007FF456AF06F1FF3CBCF1010F01F580777D
:101F10007FF74EAF9E464FF00108A7EB080B5FFA24
:101F20008BF204EB420B08F10108BBF97000BBF91E
:101F300070221FFA88F8C44586441344EDDCBEF1D4
:101F4000000FBFF635AF002BBFF632AFB4F88434C4
:101F5000013398B22028A4F884047FF429AFA0F5B7
:101F600084620023D4F8100DC4F87824C4F87424D3
:101F70000322DFF84881C4F87C34A4F884349946FD
:101F8000C4F8140D22704FEA460E002E4AD1B9F162
:101F9000000F80F28F80C4F87CE47046404507DA79
:101FA000D4F87824424503DAD4F87C34434565D02C
:101FB000C4F87884C4F87404F6E601212046FFF7DB
:101FC00005FED4F8141D6618013186F8900C01F056
:101FD0007F072278C4F8147D032A7FF4E9AEB4F8B1
:101FE0007014B4F88064D4F87C94D4F8748401F547
:101FF000807087B212E0D4F8147DE2194FF0040A21
:1020000082F890AC013707F07F0001F58073D4F8B7
:102010007C94D4F87484C4F8140D9FB24FEA460E31
:10202000002EB4D000231846FA1A5FFA82FA04EBA5
:102030004A02B342B2F970A0B2F970B203F10103DF
:1020400034BF4FF0FF3201229BB234BF4FF0010C7E
:102050004FF0FF3C02FB0A0073450CFB0B00E3DB77
:102060004845C8BFC4F87C04002897DA00274045DB
:10207000C4F87C749CDA93E7BDE8F88FA1EB5607AF
:10208000F9B204EB410CBCF97020002A90DABCF9DB
:102090007032002B8CDDB4F884740137B9B2042996
:1020A000A4F8841406F1FF3904BF05212170A4F8B7
:1020B00082947DE7704671E70400002000FCFFFF7A
:1020C00000231022037080F80C21A0F80E31A0F834
:1020D0000A31A0F81011704790F80C310B41DB0762
:1020E00006D5042946D8DFE801F019312B37060060
:1020F000032202707047B0F80E11B0F810210131C0
:102100001FFA81FC6245A0F80EC102D8B0F80A316E
:102110006BBB41F21601A0F80C11704790F80DC18D
:102120000CF1FF330822DBB280F80C2180F80D316E
:102130002BB90121A0F806310180A0F808317047C1
:10214000022290F80D3180F80C21F1E70C2190F873
:102150000D3180F80C11EBE790F80DC10CF1FF3355
:102160000121DBB280F80C1180F80D31E0E7052287
:102170000270704790F80D31DAE700BF38B5027889
:102180000446C2B1012A14D1B0F8060104EB000CD8
:102190000B469CF8011019438CF80110B4F8085153
:1021A0000135ABB2042BA4F8083109D08C008CF8AF
:1021B0000140104638BDFFF78FFF0278104638BD4A
:1021C000013080B20021B0F5827FA4F80811A4F894
:1021D000060102D004446170EBE72D49631C04F250
:1021E000011C4FF0FF309E469A781EF8015B454077
:1021F000EDB29EF800E051F8255085EA10258EEAF0
:1022000005005FFA80FE083351F82E0080EA15259C
:102210006A40D2B251F8220080EA152013F8055C1A
:102220004540EAB251F8225013F8042C85EA1020F8
:102230004240D5B251F8252082EA102513F8030C4C
:102240006840C2B251F8220013F8022C80EA15252A
:102250006A40D0B29C4551F8202013F8010C82EA64
:10226000152580EA0500C2B251F8220080EA152047
:10227000B9D1D4F80111B4F80A310DBAC24395426C
:102280000CBF0222042201332270A4F80A3190E725
:10229000AC32000810B41B4A1B4B4FF0E0204FF04B
:1022A000FF310424C2F88010C2F88410C2F88011F3
:1022B000C2F884110461D3F80008144A40F0010107
:1022C000C3F80018D3F8604A2240C3F8602AD3F854
:1022D000002822F0847121F48034C3F80048D3F838
:1022E000002822F48021C3F80018D3F8604A0020A7
:1022F00024F4FE02C3F8602AC3F8C00C5DF8044B56
:10230000704700BF00E100E0003002400000FFF82D
:102310004368026882F30888184700BF3A483B4A7E
:10232000D0F8883043F47003C0F888301368002177
:1023300043F00103136091601368A0F1BC2C23F0FB
:102340008473ACF1F00023F48033136050601068A4
:1023500082B020F480231360D16000910191116854
:1023600041F48030106003E00099B1F5A04F09D02E
:10237000136803F400310191009801300090019B33
:10238000002BF1D0214A106810F4003318BF01234C
:1023900001930199012905D01B494FF000628A6021
:1023A00002B07047194B1A491A6C1A4842F0805211
:1023B0001A640A6842F440420A60996899609A680F
:1023C00042F4004199609A6842F4A05199605860C3
:1023D000186840F080721A6019688A01FCD50E48AE
:1023E00040F2056202609968A0F5806C21F003005C
:1023F00098609A6842F002019960DCF8083003F0B6
:102400000C000828F9D1C7E700ED00E000380240D1
:102410000070004008544007003C024021F0604139
:10242000024B21F07F0210439860704700ED00E0FE
:1024300010B436490268002322F0010221248842A8
:102440000260036043608360C3600361446138D00D
:102450002F4B98422ED02F4CA0423CD02E49884280
:1024600040D02E4B984232D02D4CA04241D02D4925
:10247000884246D02C4B984217D02C4988423CD0F9
:102480002B4B984216D02B4CA04224D02A4988428C
:1024900028D02A4B98421AD0294CA04229D0294949
:1024A00088422ED0284B984208D14FF03D5243F835
:1024B000AC2C03E04FF4746443F8204C5DF8044BFB
:1024C000704722493D2088605DF8044B70472048E2
:1024D00043F8640CF2E74FF4741244F8382C5DF8BA
:1024E000044B70474FF0746341F8503C5DF8044B67
:1024F0007047184944F87C1CE0E73D2041F8080C7F
:10250000DCE7154C41F8944CD8E700BF106002405E
:102510002860024040600240586002407060024003
:1025200088600240A0600240B8600240106402402F
:1025300028640240406402405864024070640240D3
:1025400088640240A0640240B86402400060024017
:102550003D000020400F002000003D2030B4CC683A
:102560000B684A692343D1E9065413432B43D1E94D
:10257000085223432B438D6A046813434A6B2B4351
:1025800013430B4D8A6B254013432B4303600D6BA4
:102590004469CB6A24F007022B43134343610C695F
:1025A00044604B6883608968C16030BC704700BF7D
:1025B0003F801CF0036819B143F0010202607047CC
:1025C00023F00101016070470B060CD54369AAB1E5
:1025D00043F08003802943610FD0026801F01E019F
:1025E000114301607047802907D0002AF5D10368A4
:1025F00001F01E0123EA01020260704723F080020D
:1026000080294261F3D17047044B1A69002A03DA2A
:102610000349044859605860704700BF003C0240BD
:1026200023016745AB89EFCD014BD860704700BFF0
:10263000003C02400E4BDA68D20310D4D968C906B8
:102640000FD4DA68D20510D4D96811F0E00F0AD19E
:10265000DB6813F0020F14BF082009207047012027
:10266000704706207047072070470220704700BF60
:10267000003C024000B583B009238DF80730FFF716
:10268000D9FF8DF807009DF80700012823D1164ACD
:1026900012E0D068C30523D4D16811F0E00F21D136
:1026A000D36813F0020F14BF082309238DF80730F5
:1026B0009DF8070001280ED1D168C8034FF001032F
:1026C000F4D4D368D906E4D506238DF807309DF8F5
:1026D00007000128F0D09DF8070003B05DF804FB67
:1026E0000223E3E70723E1E7003C024070B505461B
:1026F00061B101292FD002290CBF4FF400744FF4AF
:102700004074FFF7B7FF092805D070BD0C46FFF7EE
:10271000B1FF0928F9D1114E336923F440703061BB
:10272000316921433161326922F0F804346133693F
:102730002B4343F002053561306940F4803131614B
:10274000FFF798FF326922F002043461336923F005
:10275000F805356170BD4FF48074D8E7003C024045
:1027600070B505460C46FFF785FF092800D070BDFF
:102770000A4E336923F440703061316941F40072CC
:102780003261336943F0010030612C60FFF772FF62
:10279000356925F00104346170BD00BF003C024082
:1027A00000232DE9F0434FF0010C9E46032423E063
:1027B0000D680EF101020CFA02F838EA050503F182
:1027C000020300F0D3800D68561C0CFA06F737EAB6
:1027D000050503F1020E00F08C800F68951C0CFAC1
:1027E00005F636EA070703F1040E3DD00D2A02F183
:1027F000030E03F106037AD00D680CFA0EF232EAEA
:102800000505D5D1076804FA03F627EA0605056031
:102810000D7907689D403D43056091F8048008F1FB
:10282000FF35012D6FEA060612D887683E408660A4
:102830004D7986689D4035438560476827EA0202E6
:1028400042608D79426805FA0EF6B7B217434760C9
:10285000C66804FA03F926EA0905C560CF79C2689B
:102860009F401743C760A3E7076804FA0EF827EAFA
:102870000807076091F8049009FA0EF7D0F8009065
:1028800047EA0907076091F8049009F1FF37012F23
:102890006FEA080817D8876808EA0707876091F881
:1028A000058008FA0EF9D0F8088049EA0807876021
:1028B000476827EA060646608F79466807FA05F5F5
:1028C000AFB237434760C56804FA0EF725EA07063A
:1028D000C66091F80790C76809FA0EF545EA070641
:1028E0000D2AC66002F1030E03F1060384D1BDE890
:1028F000F083056804FA0EF825EA0805056091F8EA
:10290000049009FA0EF5D0F8009045EA0905056033
:1029100091F8049009F1FF35012D6FEA080816D8E7
:10292000856808EA0505856091F8058008FA0EF9C2
:10293000D0F8088049EA08058560456825EA070758
:1029400047608D79B5404668AFB237434760C56888
:1029500004FA0EF725EA0706C66091F80790C768E3
:1029600009FA0EF545EA0706C66036E7066804FA76
:1029700003F726EA07050560FE430F79D0F800E06B
:102980009F4047EA0E05056091F8049009F1FF3772
:10299000012F11D885682E4086604E7987689E4049
:1029A0003E438660456825EA080646608F7946689A
:1029B0009740BDB235434560C76804FA03F527EA7E
:1029C0000506C660CF79C5689F402F43C760FAE609
:1029D0000369194214BF0120002070470AB1018326
:1029E00070474183704700BFCB0800EB830001F0C4
:1029F0000701036A89004FF00F0C0CFA01FC23EA6F
:102A00000C030362036A8A401A430262704700BFE4
:102A100008B5174B984206D0164988420FD0164A7F
:102A2000904218D008BD01214FF4001000F074F955
:102A3000BDE8084000214FF4001000F06DB90121FD
:102A40004FF4800000F068F9BDE8084000214FF421
:102A5000800000F061B901214FF4000000F05CF942
:102A6000BDE8084000214FF4000000F055B900BF58
:102A70000054004000580040005C004070B586885B
:102A800084B0044668460D4626F03F0600F0DCF8A8
:102A90000299314A3004A2FB0132030C43EA924608
:102AA000A680208820F001031E04300C20802B68B3
:102AB0002A4EB3424FEA924025D85B00B1FBF3F6B1
:102AC000B1B20130042938BF04212084A1832188B8
:102AD0008AB242F001002080B4F800C06989AE8853
:102AE0002CF4816E2EF002031A040E43100C3043B6
:102AF00086B22680A9892D8929431FFA81FCA4F872
:102B000008C004B070BDB5F806C04BF6FF7EF445B2
:102B10001AD003EB830202EB8203B1FBF3F18EB216
:102B200046F4804ECEF30B0109B94EF0010E0C4E67
:102B30004FF4967303FB00F0A6FB002082090132DC
:102B40004EF400412284C1E703EB4302B1FBF2FCE7
:102B50001FFA8CFEE6E700BF83DE1B43A086010060
:102B6000D34D6210038821B199B241F00102028075
:102B7000704723F001010A04130C0380704700BF63
:102B8000038821B199B241F480720280704723F426
:102B900080710A04130C0380704700BF038821B1C1
:102BA00099B241F400720280704723F400710A0464
:102BB000130C0380704700BF22B141F001018AB2BB
:102BC0000282704701F0FE018AB20282704700BFA4
:102BD00001827047838A008B9AB242EA00430B401D
:102BE00023F07F40411AB1FA81F25009704700BFCB
:102BF00082B000230A0F0093019301900092009B82
:102C000021F07F4153B1019B14330193019A136862
:102C10000B4214BF0120002002B07047019A183205
:102C2000090C0192F2E700BF034B090741EA80104B
:102C3000C3F88400704700BF00380240014B98661B
:102C4000704700BF0000474210B4204A936803F069
:102C50000C0104291DD008291ED01D4B03601B4AFE
:102C60001C499468C4F3031C11F80C40E340436012
:102C70009468C4F3822C11F80C4023FA04F48460A5
:102C80009268C2F34234095D5DF8044BCB40C360E7
:102C90007047114B0360E2E754685368516803F0D2
:102CA0003F0C0A4B14F4800FC1F38814596814BF09
:102CB000094A074AB2FBFCF202FB04F4C1F30142E9
:102CC00001325300B4FBF3F30360C8E7003802405D
:102CD0000024F4000802002000127A00014BC3F81F
:102CE0005C01704700004742044A136B11B118435E
:102CF0001063704723EA00001063704700380240F9
:102D0000044A136C11B118431064704723EA0000A1
:102D10001064704700380240044A136A11B1184326
:102D20001062704723EA00001062704700380240CA
:102D3000044A536A11B118435062704723EA0000F5
:102D400050627047003802404309012B0BD00A49FA
:102D5000022B0CBF096F496F00F01F0021FA00F32E
:102D600003F001007047044A116800F01F0021FAC7
:102D700000F303F0010070470038024008B52D4B06
:102D800098421BD02C49884224D02C4A90422DD006
:102D90002B4B984206D02B49884233D02A4A904286
:102DA0003CD008BD01214FF40050FFF7C1FFBDE842
:102DB000084000214FF40050FFF7BABF01214FF443
:102DC0008050FFF7B5FFBDE8084000214FF4805068
:102DD000FFF7AEBF01214FF48040FFF79DFFBDE834
:102DE000084000214FF48040FFF796BF01214FF4C7
:102DF0000040FFF791FFBDE8084000214FF400407C
:102E0000FFF78ABF01214FF48010FFF791FFBDE863
:102E1000084000214FF48010FFF78ABF01214FF4D2
:102E20000010FFF785FFBDE8084000214FF40010B7
:102E3000FFF77EBF0030014000380040003C0040FA
:102E4000003401400050014000540140838BF0B534
:102E500023F47B6222F00F04250402232F0C8783C6
:102E600003848C68828B9C421FFA82FC5AD02F4BC1
:102E70008D889F68002D0CBF012602263F0204D5D5
:102E80009C6824F400029A608C68284BD3F8845024
:102E9000D3F88470C5F3881EC7F302725D685F685B
:102EA00005F03F037D024CBF214D224DB5FBF3F7EA
:102EB0000EFB07F3B1F806E0B3FBF2F2BEF5007FBC
:102EC00027D07601B2FBF6F505EB85077B00B3FB57
:102ED000F4F40534A6B2184CA4FB06263509AA1E44
:102EE000C6F3C007FD2A94BF45EA072702274EEA2A
:102EF000070303840E884C888D88898926434CEA11
:102F000006072F430F43BAB242F4006CA0F81CC06E
:102F1000F0BD120A02EB82056F00B7FBF4F3053334
:102F20009EB2D8E7B1F806E02746E0E70038024055
:102F300000127A000024F400CDCCCCCC838B21B1DC
:102F400099B241F480628283704723F480610A045D
:102F5000130C8383704700BF838B10B523F47B620F
:102F600022F00F0423041B0C4FF0020C8383A0F803
:102F700020C0B1F800E0B1F802C08C882EF40072D5
:102F800092B2002AB1F80CE0818B4CEA04040CBF29
:102F90004FF480730023234343EA0E030B439AB29A
:102FA00042F40064848310BD83889BB212B119433C
:102FB0008180704723EA010181807047002103E08E
:102FC0000A4B5B584350043109480A4B42189A4255
:102FD000F6D3094A02E0002342F8043B074B9A4229
:102FE000F9D3FFF79BF9FDF70DFE7047D0360008C7
:102FF00000000020200200202002002010570020A6
:10300000FEE700000080008000A0B9B200C04ECAF8
:10301000B9D2D6D900E071E54EEAB4EEB9F26BF65A
:10302000D6F906FD0000CC027005EF074D0A8D0CA5
:10303000B30EC110B8129A146A162818D519741B49
:10304000051D881E00206B21CC2223247025B32669
:10305000EF2722294D2A712B8D2CA32DB32EBD2FA6
:10306000C130BF31B832AB339A3484356A364B370E
:1030700028380039D539A73A743B3E3C053DC83D58
:10308000883E453F0040B7406B411D42CC427943EA
:103090002344CA4470451346B3465247EF47894814
:1030A0002249B8494D4AE04A714B004C8D4C194DAC
:1030B000A34D2C4EB34E394FBD4F3F50C1504051E0
:1030C000BF513C52B8523253AB5323549A5410550B
:1030D0008455F7556A56DB564B57BA5728589458BB
:1030E00000596B59D5593E5AA75A0E5B745BDA5B8F
:1030F0003E5CA25C055D675DC85D295E885EE75E3B
:10310000455FA35F00605B60B76011616B61C46184
:103110001D627562CC6223637963CE632364776436
:10312000CA641D657065C16513666366B36603672F
:103130005267A167EF673C688968D66822696D6944
:10314000B869036A4D6A966AE06A286B716BB86B5E
:10315000006C476C8D6CD46C196D5F6DA36DE86D60
:103160002C6E706EB36EF66E396F7B6FBD6FFE6F37
:103170003F708070C170017140718071BF71FD71CD
:103180003C727A72B872F57232736F73AB73E77315
:1031900023745F749A74D57410754A758475BE75FE
:1031A000F77531766A76A276DB7613774B7782777E
:1031B000BA77F17728785E789478CB780079367989
:1031C0006B79A079D5790A7A3E7A737AA77ADA7A16
:1031D0000E7B417B747BA77BDA7B0C7C3E7C707C16
:1031E000A27CD37C057D367D677D987DC87DF87D8A
:1031F000297E597E887EB87EE77E167F457F747F64
:10320000A37FD17FD17F00000000000000000000FC
:10321000000000004C3200085C3200080000000092
:103220006C320008000000007C3200080000000042
:1032300000000000000000008C32000800000000C8
:1032400000000000000000009C320008ECFF280095
:10325000C9FF4000FF004000C9FF2800EBFFCDFF81
:103260007B00FF007B00CDFFEBFF0000BAFF1900E1
:10327000B400FF00B4001900BAFF0000DDFF5500E4
:10328000CD00FF00CD005500DDFF00002D009500B2
:10329000E300FF00E30095002D0000000000620045
:1032A000B400EC00FF00EC00B4006200000000007D
:1032B000963007772C610EEEBA51099919C46D0743
:1032C0008FF46A7035A563E9A395649E3288DB0E9E
:1032D000A4B8DC791EE9D5E088D9D2972B4CB60981
:1032E000BD7CB17E072DB8E7911DBF906410B71D5E
:1032F000F220B06A4871B9F3DE41BE847DD4DA1A97
:10330000EBE4DD6D51B5D4F4C785D38356986C13C7
:10331000C0A86B647AF962FDECC9658A4F5C011440
:10332000D96C0663633D0FFAF50D088DC8206E3B1E
:103330005E10694CE44160D5727167A2D1E4033C30
:1033400047D4044BFD850DD26BB50AA5FAA8B53557
:103350006C98B242D6C9BBDB40F9BCACE36CD83246
:10336000755CDF45CF0DD6DC593DD1ABAC30D926ED
:103370003A00DE518051D7C81661D0BFB5F4B421F0
:1033800023C4B3569995BACF0FA5BDB89EB80228ED
:103390000888055FB2D90CC624E90BB1877C6F2F72
:1033A000114C6858AB1D61C13D2D66B69041DC766D
:1033B0000671DB01BC20D2982A10D5EF8985B17146
:1033C0001FB5B606A5E4BF9F33D4B8E8A2C90778F5
:1033D00034F9000F8EA8099618980EE1BB0D6A7F8C
:1033E0002D3D6D08976C6491015C63E6F4516B6B45
:1033F00062616C1CD83065854E0062F2ED95066CFA
:103400007BA5011BC1F4088257C40FF5C6D9B0656E
:1034100050E9B712EAB8BE8B7C88B9FCDF1DDD62CB
:10342000492DDA15F37CD38C654CD4FB5861B24D31
:10343000CE51B53A7400BCA3E230BBD441A5DF4AFB
:10344000D795D83D6DC4D1A4FBF4D6D36AE96943BE
:10345000FCD96E34468867ADD0B860DA732D044469
:10346000E51D03335F4C0AAAC97C0DDD3C71055094
:10347000AA41022710100BBE86200CC925B568573B
:10348000B3856F2009D466B99FE461CE0EF9DE5E84
:1034900098C9D9292298D0B0B4A8D7C7173DB35935
:1034A000810DB42E3B5CBDB7AD6CBAC02083B8EDC6
:1034B000B6B3BF9A0CE2B6039AD2B1743947D5EAD3
:1034C000AF77D29D1526DB048316DC73120B63E302
:1034D000843B64943E6A6D0DA85A6A7A0BCF0EE461
:1034E0009DFF099327AE000AB19E077D44930FF01C
:1034F000D2A3088768F2011EFEC206695D5762F713
:10350000CB67658071366C19E7066B6E761BD4FE4F
:10351000E02BD3895A7ADA10CC4ADD676FDFB9F92C
:10352000F9EFBE8E43BEB717D58EB060E8A3D6D6EE
:103530007E93D1A1C4C2D83852F2DF4FF167BBD11C
:103540006757BCA6DD06B53F4B36B248DA2B0DD81F
:103550004C1B0AAFF64A0336607A0441C3EF60DFC2
:1035600055DF67A8EF8E6E3179BE69468CB361CBAB
:103570001A8366BCA0D26F2536E2685295770CCCD0
:1035800003470BBBB91602222F260555BE3BBAC511
:10359000280BBDB2925AB42B046AB35CA7FFD7C202
:1035A00031CFD0B58B9ED92C1DAEDE5BB0C2649BF3
:1035B00026F263EC9CA36A750A936D02A906099C26
:1035C0003F360EEB8567077213570005824ABF9599
:1035D000147AB8E2AE2BB17B381BB60C9B8ED2921C
:1035E0000DBED5E5B7EFDC7C21DFDB0BD4D2D38673
:1035F00042E2D4F1F8B3DD686E83DA1FCD16BE81E6
:103600005B26B9F6E177B06F7747B718E65A0888B6
:10361000706A0FFFCA3B06665C0B0111FF9E658F47
:1036200069AE62F8D3FF6B6145CF6C1678E20AA0F1
:10363000EED20DD75483044EC2B30339612667A777
:10364000F71660D04D476949DB776E3E4A6AD1AEC6
:10365000DC5AD6D9660BDF40F03BD83753AEBCA955
:10366000C59EBBDE7FCFB247E9FFB5301CF2BDBDC2
:103670008AC2BACA3093B353A6A3B4240536D0BACB
:103680009306D7CD2957DE54BF67D9232E7A66B368
:10369000B84A61C4021B685D942B6F2A37BE0BB415
:1036A000A18E0CC31BDF055A8DEF022DF8B500BFAC
:1036B000F8BC08BC9E467047F8B500BFF8BC08BC13
:1036C0009E4670470000000000000000000000005F
:1036D000401F00000000320064009600C800FA009D
:1036E0002C015E018F01C001F1012202520282020F
:1036F000B102E1020F033D036B039803C503F1031D
:103700001C04470471049B04C304EB04130539052E
:103710005F058405A805CB05ED050E062F064E06B0
:103720006C068A06A606C206DC06F5060E07250705
:103730003B0750076407760788079807A707B50770
:10374000C207CE07D807E107E907F007F607FA072F
:10375000FD07FF070008FF07FD07FA07F607F00758
:10376000E907E107D807CE07C207B507A7079807FB
:1037700088077607640750073B0725070E07F506FD
:10378000DC06C206A6068A066C064E062F060E0644
:10379000ED05CB05A80584055F0539051305EB0488
:1037A000C3049B04710447041C04F103C50398037C
:1037B0006B033D030F03E102B102820252022202B7
:1037C000F101C0018F015E012C01FA00C8009600D2
:1037D000640032000000CEFF9CFF6AFF38FF06FF46
:1037E000D4FEA2FE71FE40FE0FFEDEFDAEFD7EFDAC
:1037F0004FFD1FFDF1FCC3FC95FC68FC3BFC0FFC7E
:10380000E4FBB9FB8FFB65FB3DFB15FBEDFAC7FA4B
:10381000A1FA7CFA58FA35FA13FAF2F9D1F9B2F9A9
:1038200094F976F95AF93EF924F90BF9F2F8DBF834
:10383000C5F8B0F89CF88AF878F868F859F84BF8A9
:103840003EF832F828F81FF817F810F80AF806F8CA
:1038500003F801F800F801F803F806F80AF810F880
:1038600017F81FF828F832F83EF84BF859F868F8BE
:1038700078F88AF89CF8B0F8C5F8DBF8F2F80BF99C
:1038800024F93EF95AF976F994F9B2F9D1F9F2F935
:1038900013FA35FA58FA7CFAA1FAC7FAEDFA15FBD1
:1038A0003DFB65FB8FFBB9FBE4FB0FFC3BFC68FCBD
:1038B00095FCC3FCF1FC1FFD4FFD7EFDAEFDDEFD62
:1038C0000FFE40FE71FEA2FED4FE06FF38FF6AFF27
:1038D0009CFFCEFF00000000000000000102030476
:1038E00001020304060708090000000000000000B0
:0400000508002FBD03
:00000001FF
