:020000040800F2
:108000000000022029A400086D9500087195000861
:1080100075950008799500087D950008000000001E
:108020000000000000000000000000008195000832
:108030008595000800000000899500088D950008CE
:108040006DA400086DA400086DA400086DA40008CC
:108050006DA400086DA400086DA400086DA40008BC
:108060006DA400086DA400086DA400086DA40008AC
:108070006DA400086DA400085DD101086DA400087E
:108080006DA400086DA400086DA400086DA400088C
:108090006DA400086DA400086DA400086DA400087C
:1080A0006DA400086DA400086DA400086DA400086C
:1080B0006DA400086DA400086DA400086DA400085C
:1080C0006DA400086DA400086DA400086DA400084C
:1080D0006DA400086DA400086DA400086DA400083C
:1080E0006DA400086DA400086DA400086DA400082C
:1080F0006DA400086DA400086DA400086DA400081C
:108100006DA400086DA400086DA400086DA400080B
:108110006DA400086DA400086DA400086DA40008FB
:108120006DA400086DA400086DA400086DA40008EB
:108130006DA400086DA400086DA400086DA40008DB
:108140006DA400086DA400086DA400086DA40008CB
:108150006DA400086DA400086DA400086DA40008BB
:108160006DA400086DA400086DA400086DA40008AB
:108170006DA400086DA400086DA400086DA400089B
:108180006DA400086DA400080000000000000000BD
:10819000830730B548D0541E002A3FD0CAB20346E8
:1081A00001E0013C3AD303F8012B9D07F9D1032CE0
:1081B0002DD9CDB245EA05250F2C45EA054536D91E
:1081C000A4F1100222F00F0C03F1200EE6444FEA56
:1081D000121C03F1100242E9045542E90255103223
:1081E0007245F8D10CF1010214F00C0F03EB0212EE
:1081F00004F00F0C13D0ACF1040323F00303043399
:10820000134442F8045B9342FBD10CF003042CB1FD
:10821000CAB21C4403F8012B9C42FBD130BD64461A
:108220001346002CF4D1F9E703461446BFE71A467B
:10823000A446E0E710EE103AC3F3C7527F3A162A7D
:1082400010EE101A15DC002A0CDB0C48104103421A
:1082500005D04FF4800313410B4423EA000300EEE2
:10826000103A7047013203F00043F8D143F07E53D7
:10827000F5E7802AF3D130EE000A7047FFFF7F0058
:1082800008B52DED048BF0EE408AB0EE608A00F068
:1082900097F8474B93F900300133B0EE409A1FD066
:1082A000B4EE488AF1EE10FA1AD6F4EE688AF1EECE
:1082B00010FA59D6DFED3F9AF4EE698AF1EE10FA22
:1082C00013D1B4EE698AF1EE10FA29D0B0EE480A63
:1082D00000F07CFB20B1B4EEE98AF1EE10FA4DD447
:1082E000B0EE490ABDEC048B08BD00F06FFBF0B1A5
:1082F000B5EE409AF1EE10FAF2D1B0EE680A00F055
:1083000065FB0028ECD0B0EE480A00F05FFB0028C7
:10831000E6D024F03EE922239FED269A0360DFE7B2
:10832000B7EE009AB0EE490ABDEC048B08BDB0EE82
:10833000680A00F04BFB0028DAD0B0EE480A00F0E3
:1083400045FB0028D4D0B4EE499AF1EE10FA28D6B5
:1083500024F01EE9F5EEC08A2223F1EE10FA036044
:1083600013D49FED159ABBE7B5EE408AF7EE007A7D
:10837000F1EE10FA08BFB0EE679AB1E724F008E911
:1083800021239FED0E9A0360AAE7B0EE480A00F0A1
:1083900031FBB4EE480AF1EE10FAE2D09FED079AF5
:1083A0009EE724F0F6E8212389EEA99A036097E777
:1083B00064020020000000000000807F000080FFB9
:1083C0002DE9F04710EE904A34F000482DED028B75
:1083D00015D010EE105A25F00047B7F1FF4F10EE00
:1083E000109A06DDBDEC028BB948BDE8F04700F0FD
:1083F000FBBAB8F1FF4F08DDB7F17E5FF2D1B7EEFF
:10840000000ABDEC028BBDE8F087002D10EE906AEB
:10841000C0F2F4804FF0000AB8F1FF4F00F0028183
:10842000B8F17E5F00F02881B6F1804F00F03D8109
:10843000B6F17C5F00EE105A40F00181B9F1000FF7
:1084400080F2388100F0BAFAB7F1FF4F00F00981ED
:10845000002F00F00281B7F17E5F00F0F8804FEA54
:10846000D973013B5AEA030200F02A81B8F19A4F0E
:1084700040F35081974A974240F35982964A974277
:1084800000F3FF80F7EE007A30EE670A9FED936A03
:10849000DFED935AF5EE007AA0EE676AF6EE006A19
:1084A000E6EE406A20EE007ADFED8E7A9FED8E6A6E
:1084B00027EE267A67EEC77AE0EE257AF0EE676A55
:1084C000E0EE066A16EE902A22F47F6222F00F0296
:1084D00007EE102AA0EE467A06EE902A77EEC77ACB
:1084E00026F47F6626F00F0607EE104A06EE106AA5
:1084F00067EE877A37EE466A07EE106AE6EE267A6E
:108500000AF1FF3A5AEA030326EE877AB7EE000A29
:1085100077EE876ABFEE006A16EE903A0CBFB0EEB7
:10852000468AB0EE408A002B23F0004240F3B5812A
:10853000B2F1864F00F3F48100F0E781B2F17C5F85
:1085400000F3B7810022104623F47F6323F00F036A
:1085500006EE103ADFED656A9FED655A9FED652ADC
:108560009FED653ADFED653A9FED654ADFED654ABF
:1085700036EE477AF0EE002A77EEC77A26EE267AB4
:10858000DFED616AA7EEA67AF0EE476AE6EE056ACD
:1085900066EEA65AF0EE667AA5EE823AE6EE457AE7
:1085A000B0EE636AA3EE256A77EE677AB0EE447A9E
:1085B000A6EE257AB0EE646AA7EE256AB0EE667A7A
:1085C000A6EE657AE6EEA77A66EE875A37EE626A1D
:1085D000B7EE005A85EE867A77EE677A77EEE66A2E
:1085E00035EE660A10EE103A1344B3F5000FC0F2F0
:1085F000B68100EE103A20EE080A02E7B8F1974F74
:108600001ADAB8F17E5F0ADB4FEAE853C3F196034A
:1086100048FA03F202FA03F3434500F039814FF0C0
:10862000000AFDE6B7F17E5F3FF4E9AE2FDD002ED4
:108630002ADB00EE104AE4E64FF0020AECE600F016
:10864000BDF9B7F1FF4F02D0002F7FF404AF002E29
:10865000BCBFF7EE007A87EE800AB9F1000FBFF6D3
:10866000D0AEA7F17E5757EA0A0340F00A8170EEB8
:10867000407A87EEA70AC4E6002E0FDB00EE105A00
:10868000BFE6002E00F356819FED200AB9E6002ECA
:10869000FADA07EE904AB1EE670AB2E607EE105A30
:1086A000F7EE007A87EE870AABE607EE905A27EEE0
:1086B000A70AA6E6BDEC028BBDE8F04700F07AB948
:1086C00007EE905A77EEE77A87EEA70A99E600BFA1
:1086D00070C50208F7FF7F3F0700803FABAAAA3EA4
:1086E00070A5EC363BAAB83F00AAB83F8CBEBF3598
:1086F0000072313F4CBB31330EEADDB555B38A38D9
:10870000610B36BBABAA2A3E1872313F0000000055
:108710000000804B19F0FF4F40F0F5805FED047AC8
:1087200060EE277A6FF0170217EE907A8D48F915F0
:10873000C7F316077F398742114447F07E5240F352
:10874000DA808948874240F3FA809FED885A0131E8
:10875000B0EE453AA2F50002F7EE005A002006EE10
:10876000102A76EE257AB7EE007A87EE270A5210A5
:1087700042F0005202F58022024476EE656A07EE6E
:10878000901A66EE803AB8EEE77A13EE901A07EE8A
:10879000902A774ADFED770A9FED778A9FED771A67
:1087A000DFED772ADFED771A9FED772A77EEE55A2E
:1087B000114004EE901A36EE656A63EEA35AE4EEB9
:1087C000E76AF0EE607AE5EE887AE4EEC66AA7EE34
:1087D000A51A66EE806AE1EE252A73EEA47AE2EE2F
:1087E000A51A25EEA58AA1EEA52A67EEA67AB0EE17
:1087F000084AB0EE446AE8EE027AA4EEA46ADFED1D
:10880000630A9FED631ADFED632A36EE276A16EEE0
:10881000101A114006EE101A76EE445AE4EEE45AAD
:1088200077EEE57A67EEA37AE6EE867AF0EE675A9F
:10883000E4EE865A15EE901A114006EE901AE4EE18
:10884000C66A05EE901A77EEE67A67EEA07AE5EE54
:10885000817A77EE837AF0EE676AE5EEA26A76EEC9
:10886000856A76EE876A16EE901A114006EE901A27
:1088700036EEC77A37EE457AA5EEE27A77EEC77A1A
:108880002EE6BAF1010F7FF4BCADB1EE400AB8E5B7
:1088900002F00102C2F1020AC2E53F498A4257DCF6
:1088A0007FF44CAE76EEC76AF4EEE76AF1EE10FAAA
:1088B0004EDAD2154FF400017E3A41FA02F21A4420
:1088C000C2F3C751354C7F390C41C2F3160022EA7E
:1088D000040206EE902A37EE667A40F40000C1F1F9
:1088E00017010841002B77EE876AB8BF404216EEA9
:1088F000903AC20528E69FED1D5AF7EE005AB0EEF9
:10890000453A00202BE7002210E79FED256A76EE1E
:10891000C76A37EE866AB4EEE66AF1EE10FAC8DD91
:10892000DFED207A28EE270A20EE270A69E5002EDF
:10893000BFF6AAAE9FED1B0A20EE000A61E59FED8F
:108940001A5A9FED1A3AF7EE085A4FF4001006E74C
:10895000DFED177A28EE270A20EE270A51E500F00E
:10896000A7F848E671C41C00D6B35D000000000003
:1089700000F0FFFF55326C3E42F1533E05A38B3EA3
:10898000ABAAAA3EB76DDB3E9A99193F4F38763FA6
:10899000A0C39D360038763F00001643FFFF7F00DE
:1089A0003CAA3833CAF2497100C0153FDCCFD1353B
:1089B0006042A20DB1EEC00A704700BF10EE103A3F
:1089C00023F0004300EE103A704700BF82B08DEDF7
:1089D000010A019820F00040B0F1FF4FACBF002029
:1089E000012002B0704700BF9FED010A704700BF31
:1089F0000000C07F10EE101AC1F3C753A3F17F022D
:108A0000162A21F0004325DC53B3002A82B04FEA36
:108A1000D17026DB244B1341194219D04FEA530C75
:108A200011EA530307D04FF4001321EA0C0113415C
:108A30000B4300EE103A1D4B03EB8003D3ED007A9D
:108A400037EE800A8DED010A9DED010A30EE670ACE
:108A500002B07047B3F1FF4F02D330EE000A704707
:108A60007047124AC1F316035B4202EB80005B0AB7
:108A70000A0D03F480031205134307EE903AD0ED7C
:108A8000006A36EEA77A01F000418DED017ADDED46
:108A9000017A77EEE67A17EE903A23F000430B4323
:108AA00000EE103AD4E700BFFFFF7F007007020816
:108AB00082B08DED010A019B33F000422AD0B2F161
:108AC000FF4F23D213F0FF4F28D19DED017ADFED48
:108AD0002A7A2A4B67EE277A9842CDED017A37DB66
:108AE000019BC3F3C752193A0244FE2A1ADD9FEDD7
:108AF000240A9FED247A019B002BF0EE407AB8BF48
:108B0000B0EE470A20EE270A02B0704730EE000AA6
:108B100002B070479DED010A02B07047D20D0244C9
:108B2000FE2AE4DC002A0BDC12F1160F17DA4CF2F5
:108B300050339842DBDC9FED140A9FED147ADAE79C
:108B400023F0FF4343EAC25300EE103A02B07047ED
:108B50009FED0D0ADDED017A27EE800AD8E7193284
:108B600023F0FF4343EAC253DFED097A07EE103AE0
:108B700027EE270ACCE700BF0000004CB03CFFFF07
:108B8000CAF24971CAF249F16042A20D6042A28D57
:108B90000000003370B54FF0FF0C4CF4E06C1CEAA1
:108BA00011541DBF1CEA135594EA0C0F95EA0C0FE3
:108BB00000F0DEF82C4481EA030621EA4C5123EA56
:108BC0004C5350EA013518BF52EA033541F4801185
:108BD00043F4801338D0A0FB02CE4FF00005E1FB38
:108BE00002E506F00042E0FB03E54FF00006E1FB82
:108BF00003569CF0000F18BF4EF0010EA4F1FF04C5
:108C0000B6F5007F64F5407404D25FEA4E0E6D4104
:108C100046EB060642EAC62141EA55514FEAC52015
:108C200040EA5E504FEACE2EB4F1FD0C88BFBCF591
:108C3000E06F1ED8BEF1004F08BF5FEA500E50F142
:108C4000000041EB045170BD06F0004646EA010108
:108C500040EA020081EA0301B4EB5C04C2BFD4EB3A
:108C60000C0541EA045170BD41F480114FF0000E33
:108C7000013C00F3AB8014F1360FDEBF002001F0A1
:108C8000004170BDC4F10004203C35DA0C341BDC1B
:108C900004F11404C4F1200500FA05F320FA04F0ED
:108CA00001FA05F240EA020001F0004221F0004121
:108CB00010EBD37021FA04F642EB06015EEA430E94
:108CC00008BF20EAD37070BDC4F10C04C4F12005C4
:108CD00000FA04F320FA05F001FA04F240EA020077
:108CE00001F0004110EBD37041F100015EEA430E48
:108CF00008BF20EAD37070BDC4F1200500FA05F268
:108D00004EEA020E20FA04F301FA05F243EA0203E6
:108D100021FA04F001F0004121FA04F220EA0200F5
:108D200000EBD3705EEA430E08BF20EAD37070BD3B
:108D300094F0000F0FD101F00046400041EB01011B
:108D400011F4801F08BF013CF7D041EA060195F0FD
:108D5000000F18BF704703F00046520043EB0303B7
:108D600013F4801F08BF013DF7D043EA06037047A4
:108D700094EA0C0F0CEA135518BF95EA0C0F0CD0AF
:108D800050EA410618BF52EA4306D1D181EA0301F5
:108D900001F000414FF0000070BD50EA410606BFEF
:108DA0001046194652EA430619D094EA0C0F02D134
:108DB00050EA013613D195EA0C0F05D152EA033679
:108DC0001CBF104619460AD181EA030101F0004197
:108DD00041F0FE4141F470014FF0000070BD41F0E0
:108DE000FE4141F4780170BD81F0004102E000BF16
:108DF00083F0004330B54FEA41044FEA430594EA5B
:108E0000050F08BF90EA020F1FBF54EA000C55EA95
:108E1000020C7FEA645C7FEA655C00F0E2804FEA66
:108E20005454D4EB5555B8BF6D420CDD2C4480EA48
:108E3000020281EA030382EA000083EA010180EA78
:108E4000020281EA0303362D88BF30BD11F0004FC6
:108E50004FEA01314FF4801C4CEA113102D04042FC
:108E600061EB410113F0004F4FEA03334CEA133337
:108E700002D0524263EB430394EA050F00F0A7804F
:108E8000A4F10104D5F1200E0DDB02FA0EFC22FA4A
:108E900005F2801841F1000103FA0EF2801843FA3E
:108EA00005F359410EE0A5F120050EF1200E012A2F
:108EB00003FA0EFC28BF4CF0020C43FA05F3C0186D
:108EC00051EBE37101F0004507D54FF0000EDCF1E6
:108ED000000C7EEB00006EEB0101B1F5801F1BD38F
:108EE000B1F5001F0CD349085FEA30004FEA3C0C93
:108EF00004F101044FEA445212F5800F80F09A8089
:108F0000BCF1004F08BF5FEA500C50F1000041EB8C
:108F1000045141EA050130BD5FEA4C0C404141EB90
:108F20000101013C28BFB1F5801FE9D291F0000F8B
:108F300004BF01460020B1FA81F308BF2033A3F13A
:108F40000B03B3F120020CDA0C3208DD02F1140C31
:108F5000C2F10C0201FA0CF021FA02F10CE002F16C
:108F60001402D8BFC2F1200C01FA02F120FA0CFC65
:108F7000DCBF41EA0C019040E41AA2BF01EB0451AE
:108F8000294330BD6FEA04041F3C1CDA0C340EDCAC
:108F900004F11404C4F1200220FA04F001FA02F3EF
:108FA00040EA030021FA04F345EA030130BDC4F1AD
:108FB0000C04C4F1200220FA02F001FA04F340EAA2
:108FC0000300294630BD21FA04F0294630BD94F053
:108FD000000F83F4801306BF81F480110134013D3A
:108FE0004EE77FEA645C18BF7FEA655C29D094EAAB
:108FF000050F08BF90EA020F05D054EA000C04BF29
:109000001946104630BD91EA030F1EBF0021002013
:1090100030BD5FEA545C05D14000494128BF41F0B2
:10902000004130BD14F580043CBF01F5801130BD16
:1090300001F0004545F0FE4141F470014FF00000A1
:1090400030BD7FEA645C1ABF194610467FEA655C52
:109050001CBF0B46024650EA013406BF52EA0335F4
:1090600091EA030F41F4002130BD00BF90F0000FE2
:1090700004BF0021704730B54FF4806404F132041E
:109080004FF000054FF0000150E700BF90F0000FD7
:1090900004BF0021704730B54FF4806404F13204FE
:1090A00010F0004548BF40424FF000013EE700BFCE
:1090B00042004FEAE2014FEA31014FEA02701FBF5E
:1090C00012F07F4393F07F4F81F06051704732F090
:1090D0007F4208BF704793F07F4F04BF41F40021E7
:1090E000704730B54FF4607401F0004521F0004145
:1090F0001CE700BF50EA010208BF704730B54FF0CF
:1091000000050AE050EA010208BF704730B511F0CF
:10911000004502D5404261EB41014FF4806404F107
:1091200032045FEA915C3FF4D8AE4FF003025FEA8D
:10913000DC0C18BF03325FEADC0C18BF033202EB11
:10914000DC02C2F1200300FA03FC20FA02F001FA6B
:1091500003FE40EA0E0021FA02F11444BDE600BF0E
:109160004FEA4102B2F1E04324BFB3F5001CDCF149
:10917000FE5C0DD901F0004C4FEAC0024CEA507081
:10918000B2F1004F40EB830008BF20F001007047B0
:1091900011F0804F21D113F13872BCBF01F00040B3
:1091A000704741F480114FEA5252C2F11802C2F1E5
:1091B000200C10FA0CF320FA02F018BF40F0010066
:1091C0004FEAC1234FEAD32303FA0CFC40EA0C0018
:1091D00023FA02F34FEA4303CCE77FEA625307D155
:1091E00050EA01331EBF4FF0FE4040F4400070478C
:1091F00001F0004040F0FE4040F40000704700BF26
:10920000844641EA000313F003036DD1403A41D391
:1092100051F8043B40F8043B51F8043B40F8043B50
:1092200051F8043B40F8043B51F8043B40F8043B40
:1092300051F8043B40F8043B51F8043B40F8043B30
:1092400051F8043B40F8043B51F8043B40F8043B20
:1092500051F8043B40F8043B51F8043B40F8043B10
:1092600051F8043B40F8043B51F8043B40F8043B00
:1092700051F8043B40F8043B51F8043B40F8043BF0
:1092800051F8043B40F8043B51F8043B40F8043BE0
:10929000403ABDD2303211D351F8043B40F8043B80
:1092A00051F8043B40F8043B51F8043B40F8043BC0
:1092B00051F8043B40F8043B103AEDD20C3205D390
:1092C00051F8043B40F8043B043AF9D2043208D088
:1092D000D2071CBF11F8013B00F8013B01D30B88FA
:1092E00003806046704700BF082A13D38B078DD0D8
:1092F00010F003038AD0C3F10403D21ADB071CBFAA
:1093000011F8013B00F8013B80D331F8023B20F813
:10931000023B7BE7043AD9D3013A11F8013B00F84C
:10932000013BF9D20B7803704B7843708B788370D4
:109330006046704788420DD98B1883420AD900EBEA
:10934000020CBAB1624613F801CD02F801CD994280
:10935000F9D170470F2A0ED8034602F1FF3C4AB1FB
:109360000CF1010C013B8C4411F8012B03F8012F87
:109370006145F9D1704740EA01039B0750D1A2F142
:10938000100370B501F1200C23F00F0501F1100E50
:1093900000F11004AC441B095EF8105C44F8105C4A
:1093A0005EF80C5C44F80C5C5EF8085C44F8085C01
:1093B0005EF8045C44F8045C0EF1100EE64504F11E
:1093C0001004E9D1013312F00C0F01EB031102F08C
:1093D0000F0400EB031327D0043C24F003064FEAEC
:1093E000940C1E441C1F8E465EF8045B44F8045F18
:1093F000B442F9D10CF1010402F0030203EB84033F
:1094000001EB840102F1FF3C4AB10CF1010C013B7C
:109410008C4411F8012B03F8012F6145F9D170BD7F
:1094200002F1FF3C03469BE72246EBE72DE9F041C2
:1094300005460C4690464848484916F079FD48488C
:1094400043462946224610F0BBFE464B93F8C4071C
:10945000002814BF21462946B8F1000F79D0424EAA
:1094600018F0010F01F10402D6E90245376871686E
:1094700008F1FF3E24D032F9043C002BB8BF5B4218
:1094800098B232F9023C002BB8BF5B42C01B9BB2C2
:109490005B1A0028D4BFAC46A4460CFB00F80EF1C2
:1094A000FF3E002BD4BF2846204600FB03F3BEF14D
:1094B000FF3F02F1040207EBE83701EBE33146D04E
:1094C00032F9040C32F9023C0028B8BF4042002BAC
:1094D000B8BF5B429BB25B1A80B2A0EB070C002BBB
:1094E000D4BF28462046BCF1000FD4BFA846A046F2
:1094F00000FB03F332F9040B08FB0CFC07EBEC3C1C
:1095000032F9027C0028B8BF4042002FB8BF7F422A
:1095100001EBE3311FFA80F8BBB25B1AA8EB0C0039
:10952000002BD4BF2F4627460028D4BFA846A0460C
:10953000AEF1020E07FB03F308FB00F0BEF1FF3FA4
:109540000CEBE03701EBE33102F10402B8D1C6E9DC
:109550000071BDE8F08100BF04D9012044F1012071
:10956000A4D90120A4E9012094D90120704700BFAB
:10957000FEE700BFFEE700BFFEE700BFFEE700BF5B
:10958000704700BF704700BF704700BF094810B563
:1095900015F0FCFF084B187818B1084C21888B0691
:1095A00000D410BDA2880348D1B216F0E7FA83B206
:1095B000A38010BDF0F80120A8F8012000100140A0
:1095C00030B587B0012103A800F0F0F90121022095
:1095D00000F068FA01254FF001232848284C04A91F
:1095E000CDE9045300F072F84FF68071254B264800
:1095F00000914FF4E832254907F0C0F9244800F003
:1096000053FC2449244816F06FFB2448009066223E
:1096100004230021C0E900118260C3601E4A1A4B76
:109620001B49204615F04AFC2946144800F066F90B
:109630000546291E18BF012119484FF4FA4213F0BC
:10964000C3FB10B9072084F8BC00164A1448202137
:1096500013F004FC10B9072284F8BC200C4C2378CA
:1096600023B903A800F0AAF907B030BD0E4800F0F6
:1096700065F903A800F0A2F907B030BD000402406C
:10968000F0F8012000000010A4D901207802002089
:10969000A8F80120ACF8012004D9012094D90120B8
:1096A00078D201202D94000890D9012008B5FFF749
:1096B00087FF044D044C284616F0D8F9204607F0E1
:1096C0004DFAF8E7F0F80120A4D9012000232DE994
:1096D000F0434FF0010C9E46032423E00D680EF189
:1096E00001020CFA02F838EA050503F1020300F062
:1096F000D3800D68561C0CFA06F737EA050503F10E
:10970000020E00F08C800F68951C0CFA05F636EA04
:10971000070703F1040E3DD00D2A02F1030E03F1F9
:1097200006037AD00D680CFA0EF232EA0505D5D19F
:10973000076804FA03F627EA060505600D7907684D
:109740009D403D43056091F8048008F1FF35012DEF
:109750006FEA060612D887683E4086604D798668B3
:109760009D4035438560476827EA020242608D7953
:10977000426805FA0EF6B7B217434760C66804FAA6
:1097800003F926EA0905C560CF79C2689F401743EF
:10979000C760A3E7076804FA0EF827EA080707601E
:1097A00091F8049009FA0EF7D0F8009047EA0907FB
:1097B000076091F8049009F1FF37012F6FEA08085C
:1097C00017D8876808EA0707876091F8058008FAC4
:1097D0000EF9D0F8088049EA08078760476827EA49
:1097E000060646608F79466807FA05F5AFB237433B
:1097F0004760C56804FA0EF725EA0706C66091F8C7
:109800000790C76809FA0EF545EA07060D2AC660F3
:1098100002F1030E03F1060384D1BDE8F08305686D
:1098200004FA0EF825EA0805056091F8049009FA93
:109830000EF5D0F8009045EA0905056091F804900E
:1098400009F1FF35012D6FEA080816D8856808EA86
:109850000505856091F8058008FA0EF9D0F80880B2
:1098600049EA08058560456825EA070747608D795C
:10987000B5404668AFB237434760C56804FA0EF793
:1098800025EA0706C66091F80790C76809FA0EF541
:1098900045EA0706C66036E7066804FA03F726EAD3
:1098A00007050560FE430F79D0F800E09F4047EAC6
:1098B0000E05056091F8049009F1FF37012F11D8CA
:1098C00085682E4086604E7987689E403E4386605C
:1098D000456825EA080646608F7946689740BDB21C
:1098E00035434560C76804FA03F527EA0506C660F4
:1098F000CF79C5689F402F43C760FAE603691942D4
:1099000014BF0120002070470AB1018370474183D2
:10991000704700BFCB0800EB830001F00701036A2A
:1099200089004FF00F0C0CFA01FC23EA0C030362D0
:10993000036A8A401A430262704700BF30B50121B2
:1099400087B0102000F0C6F8164C174D01210846CC
:1099500000F0A8F840F20223694620464FF4C062A6
:10996000CDE90023FFF7B2FE204607220921FFF7C9
:10997000D1FF204607220A21FFF7CCFF00244FF435
:1099800016524FF4402302A92846CDE90343029220
:10999000ADF8144000F0DCF80121284600F03CF955
:1099A00007B030BD000002400010014001B970470F
:1099B0004FF400414FF0006000F05ABD4FF0E0233B
:1099C000064A10B4F020064C5C61002182F82300A6
:1099D000072299615DF8044B1A61704700ED00E0C1
:1099E0003F900200034B090741EA8010C3F884004E
:1099F000704700BF00380240014B9866704700BFB7
:109A00000000474210B4204A936803F00C01042977
:109A10001DD008291ED01D4B03601B4A1C499468A9
:109A2000C4F3031C11F80C40E34043609468C4F392
:109A3000822C11F80C4023FA04F484609268C2F37B
:109A40004234095D5DF8044BCB40C3607047114B55
:109A50000360E2E754685368516803F03F0C0A4B17
:109A600014F4800FC1F38814596814BF094A074AD7
:109A7000B2FBFCF202FB04F4C1F3014201325300D9
:109A8000B4FBF3F30360C8E7003802400024F4009D
:109A90000000002000127A00014BC3F85C017047FF
:109AA00000004742044A136B11B11843106370471A
:109AB00023EA00001063704700380240044A136C28
:109AC00011B118431064704723EA00001064704716
:109AD00000380240044A536C11B118435064704777
:109AE00023EA00005064704700380240044A136AB9
:109AF00011B118431062704723EA000010627047EA
:109B000000380240044A536A11B11843506270474A
:109B100023EA000050627047003802404309012BDD
:109B20000BD00A49022B0CBF096F496F00F01F00D0
:109B300021FA00F303F001007047044A116800F0B5
:109B40001F0021FA00F303F00100704700380240C3
:109B500030B5038ACA881FFA83FC2CF440531343A0
:109B60000382B0F80CE08B880D4609892EF4B05CB6
:109B70000B4369892CF00C0212040B439BB2110CAD
:109B80000B438381818AAA891FFA81FE2EF44073D8
:109B900085B01343044683826846FFF733FF1C48B1
:109BA000844205D000F580618C4201D0029A00E029
:109BB000039AB4F80CC02D68164802EB820E1CF410
:109BC000004F14BF6D00AD000EEB8E03B3FBF5FE2E
:109BD000A589A0FB0E214B0964211A0101FB13E3A7
:109BE00029040AD41D013235A0FB0510C0F343112E
:109BF00011438AB2228105B030BDDB003233A0FBB5
:109C00000315C5F3421111438AB2228105B030BD5C
:109C1000001001401F85EB51838921B199B241F4B5
:109C200000528281704723F400510A04130C83818F
:109C3000704700BF044B1A69002A03DA034904483D
:109C400059605860704700BF003C024023016745DF
:109C5000AB89EFCD014BD860704700BF003C02409C
:109C60000E4BDA68D20310D4D968C9060FD4DA686B
:109C7000D20510D4D96811F0E00F0AD1DB6813F0D7
:109C8000020F14BF082009207047012070470620EA
:109C90007047072070470220704700BF003C024019
:109CA00000B583B009238DF80730FFF7D9FF8DF891
:109CB00007009DF80700012823D1164A12E0D0685A
:109CC000C30523D4D16811F0E00F21D1D36813F07C
:109CD000020F14BF082309238DF807309DF80700F1
:109CE00001280ED1D168C8034FF00103F4D4D36822
:109CF000D906E4D506238DF807309DF80700012822
:109D0000F0D09DF8070003B05DF804FB0223E3E701
:109D10000723E1E7003C024070B5054661B1012927
:109D20002FD002290CBF4FF400744FF44074FFF79A
:109D3000B7FF092805D070BD0C46FFF7B1FF092811
:109D4000F9D1114E336923F44070306131692143F8
:109D50003161326922F0F804346133692B4343F0F6
:109D600002053561306940F480313161FFF798FFB9
:109D7000326922F002043461336923F0F805356159
:109D800070BD4FF48074D8E7003C024070B50546C2
:109D90000C46FFF785FF092800D070BD0A4E3369D5
:109DA00023F440703061316941F4007232613369EB
:109DB00043F0010030612C60FFF772FF356925F038
:109DC0000104346170BD00BF003C024070B505461F
:109DD0000C46FFF765FF092800D070BD0A4E3369B5
:109DE00023F440703061316941F48072326133692B
:109DF00043F0010030612C80FFF752FF356925F0F8
:109E00000104346170BD00BF003C024030B5012147
:109E100083B004460220FFF745FE01210420FFF72E
:109E200041FE4FF001254FF4807369460948CDE9A2
:109E30000035FFF74BFC4FF4406207486946CDE917
:109E40000025FFF743FCFF2020706070A07003B076
:109E500030BD00BF0004024000080240F8B5104FBA
:109E6000057804466A004FF40061384655B2FFF7A2
:109E700045FD66782843730020704FF480613846B2
:109E80005FB2FFF73BFDA17838434A0060704FF4A2
:109E90008071044855B2FFF731FD2843A070F8BD2A
:109EA00000080240000402402DE9F84F0546002357
:109EB00005F8043BA04CDFF89C9207464FF0EF08F2
:109EC00000F14406A246AE4604F1400BD446BCE87D
:109ED0000F00DC45CEF80000CEF80410CEF80820C4
:109EE000CEF80C300AF1100A0EF1100EEED1721BF2
:109EF00012F007002B464FF000012BD0012822D092
:109F000002281CD0032816D004280FD0052808D01A
:109F1000062801D013F8011B13F801BB8B441FFA6C
:109F20008BF113F801CB8C441FFA8CF113F801ABC1
:109F30008A441FFA8AF113F8012B0A4491B213F8EC
:109F4000010B084481B213F801BB8B44B3421FFAE2
:109F50008BF122D09A4693F802E01AF8012B93F87D
:109F600003C09AF800000A4410FA82FB1EFA8BFA2A
:109F7000197993F805E0987993F807B01CFA8AF2FA
:109F800011FA82F11EFA81FC10FA8CF008331BFAE8
:109F900080FAB3421FFA8AF1DCD1B4F84030CA43E8
:109FA00091B28B4200F0B180443C4C4508F1FF383F
:109FB00088D1624A624B63497A604FF07F40012248
:109FC0004FF000098024B960FB603B617B61BB619D
:109FD000FB613B627B62BB62FB623B633A7078630E
:109FE0003C87A7F8449087F83A90FFF723FEF320C8
:109FF000FFF730FEB7F844105348544A01EB011301
:10A0000000EB830494424FEA830380F089800029A7
:10A0100000F08880DFF840A1DFF840B103F1006E66
:10A020000EF580419A449B446FF00300A0EB0708B3
:10A030008844A94609EB080059F8041BFFF7A6FE5F
:10A04000B145F7D1741B14F007034FF000022BD079
:10A05000012B22D0022B1BD0032B15D0042B0FD0A9
:10A06000052B08D0062B01D015F8012B15F801CBD4
:10A0700094441FFA8CF215F801EB96441FFA8EF205
:10A0800015F8011B11448AB215F8010B104482B275
:10A0900015F8018B90441FFA88F215F8019B914442
:10A0A000B5421FFA89F21FD02C46A97814F8013B5B
:10A0B00095F805E0207895F80680134410FA83F2AD
:10A0C00011FA82F4E9782B7911FA84FC13FA8CF0F6
:10A0D0001EFA80F495F80790083518FA84F119FAF9
:10A0E00081F2B54292B2DFD1D543A9B25846FFF70B
:10A0F0006DFEB7F844105046FFF768FEB7F84460AD
:10A100000136A7F84460BDE8F88FB4F84200404536
:10A110007FF44AAF08F10103A7F84430BDE8F88F97
:10A12000A7F8449002210820FFF7F6FDDFF82CB0D5
:10A13000DFF824A0064977E77C7F00080A578542AC
:10A14000AE47013F1F85A8C24440000800800008B8
:10A1500000400008BC3F00084240000840400008A2
:10A160002DE9F04F83B00C4601F204471D460193E0
:10A170001646FFF75FFDF320FFF76CFD04F10800C2
:10A180000221C000FFF7C8FD002D00F09C804FEABF
:10A190004749002731684846FFF7F8FD716809F123
:10A1A0000400FFF7F3FDD6E90114032909F10808BB
:10A1B00040F28C800A1F22F0030504352B1F9808FB
:10A1C000013010F00701C34604EB050A3ED0012917
:10A1D00033D002292AD0032921D0042918D00529F7
:10A1E0000FD0062906D054F8041B404609F10C0B89
:10A1F000FFF7CCFD584654F8041BFFF7C7FD0BF1E1
:10A20000040B584654F8041BFFF7C0FD0BF1040B78
:10A21000584654F8041BFFF7B9FD0BF1040B5846E0
:10A2200054F8041BFFF7B2FD0BF1040B584654F829
:10A23000041BFFF7ABFD0BF1040B54F8041B58464D
:10A24000FFF7A4FD54450BF1040B33D022465846CA
:10A2500052F8041B0092FFF799FD009B0BF10409D3
:10A2600019684846FFF792FDA1680BF10800FFF757
:10A270008DFDE1680BF10C00FFF788FD21690BF102
:10A280001000FFF783FD203454F80C1C0BF1140070
:10A29000FFF77CFD54F8081C0BF11800FFF776FD62
:10A2A0000BF11C0054F8041CFFF770FD54450BF132
:10A2B000200BCBD108EB0509019C0137BC4206F10C
:10A2C0000C067FF467AF03B0BDE8F08FC146F3E73B
:10A2D0002DE9F0470746FFF7ADFCF320FFF7BAFC86
:10A2E000B7F844104B4A4C4801EB011302EB8304CE
:10A2F000844207F104057BD30021A7F84410022112
:10A300000820FFF709FDDFF81891DFF81881434AAC
:10A310006FF00303A3EB070A924407F144062C46AF
:10A3200004EB0A0054F8041BFFF730FDB442F7D1E8
:10A33000701B10F007014FF0000328D0012920D036
:10A3400002291AD0032913D004290DD0052906D0DB
:10A3500006295BD115F801CB9C441FFA8CF315F844
:10A3600001EB9E441FFA8EF315F8012B1A4493B2A9
:10A3700015F801AB9A441FFA8AF315F8014B1C44F7
:10A38000A3B215F8010B1844B54283B21FD0AC46F6
:10A39000AA781CF8011B95F803E09CF800401944CA
:10A3A00014FA81F02B79697912FA80F21EFA82FA96
:10A3B000A87913FA8AFC11FA8CF495F807E00835AD
:10A3C00010FA84F21EFA82F3B5429BB2DFD1DD436C
:10A3D000A9B24846FFF7FAFCB7F844104046FFF729
:10A3E000F5FCB7F844600136A7F84460BDE8F08793
:10A3F000002984D09E00DFF82C80DFF8249006F13D
:10A40000006A0AF58042B044B14481E715F8013B87
:10A41000A0E700BF4440000800800008004000089A
:10A420004040000842400008002103E00A4B5B580E
:10A430004350043109480A4B42189A42F6D3094A5C
:10A4400002E0002342F8043B074B9A42F9D314F090
:10A45000C9FBFFF72BF97047A0C5020800000020D8
:10A460007002002070020020C0F90120FEE7000009
:10A4700021F06041024B21F07F0210439860704749
:10A4800000ED00E008B5174B984206D01649884207
:10A490000FD0164A904218D008BD01214FF4001089
:10A4A000FFF724FBBDE8084000214FF40010FFF740
:10A4B0001DBB01214FF48000FFF718FBBDE80840E9
:10A4C00000214FF48000FFF711BB01214FF4000081
:10A4D000FFF70CFBBDE8084000214FF40000FFF738
:10A4E00005BB00BF0054004000580040005C004025
:10A4F00070B5868884B0044668460D4626F03F064F
:10A50000FFF780FA0299314A3004A2FB0132030CB2
:10A5100043EA9246A680208820F001031E04300CF6
:10A5200020802B682A4EB3424FEA924025D85B0028
:10A53000B1FBF3F6B1B20130042938BF0421208405
:10A54000A18321888AB242F001002080B4F800C0C3
:10A550006989AE882CF4816E2EF002031A040E4332
:10A56000100C304386B22680A9892D8929431FFA11
:10A5700081FCA4F808C004B070BDB5F806C04BF665
:10A58000FF7EF4451AD003EB830202EB8203B1FB9A
:10A59000F3F18EB246F4804ECEF30B0109B94EF0C2
:10A5A000010E0C4E4FF4967303FB00F0A6FB002047
:10A5B000820901324EF400412284C1E703EB4302D9
:10A5C000B1FBF2FC1FFA8CFEE6E700BF83DE1B4303
:10A5D000A0860100D34D6210038821B199B241F0E9
:10A5E00001020280704723F001010A04130C03806A
:10A5F000704700BF038821B199B241F48072028094
:10A60000704723F480710A04130C0380704700BF65
:10A61000038821B199B241F400720280704723F49B
:10A6200000710A04130C0380704700BF22B141F08F
:10A6300001018AB20282704701F0FE018AB20282F1
:10A64000704700BF01827047838A008B9AB242EA4A
:10A6500000430B4023F07F40411AB1FA81F25009C8
:10A66000704700BF82B000230A0F0093019301904E
:10A670000092009B21F07F4153B1019B1433019361
:10A68000019A13680B4214BF0120002002B07047EA
:10A69000019A1832090C0192F2E700BFF8B5541084
:10A6A000103C002B0260846042DD012BC1603FD072
:10A6B00001EB8402022B4FEA8406026148D001EBD1
:10A6C000C405032B45614FEA440515D0621901EB1F
:10A6D0008207042B87610FD0224401EB8207052BF0
:10A6E000C76109D0224401EB8207062B076203D021
:10A6F000224401EB8201416200EB830C5F1EDCF817
:10A7000008408462254400224760C56280F83020FA
:10A7100000EB830300F10C0403F1080554F8040B6B
:10A72000324600210EB1FDF733FDAC42F6D1F8BD43
:10A7300000EB83065D1EB1688162002201EB4407D5
:10A740009542C762456080F83020F0DDA600DFE763
:10A750006500D1E782680368012A40F381802DE912
:10A76000F0435C10651C161901EB850C01EB860E9D
:10A77000D0E90A40DFED3B2A9FED3B4A3B4D3C4E82
:10A780000431B6EE005AB7EE083A2DE020EE847A96
:10A7900061EE043AF0EE456AF0EE457AE7EE216AA2
:10A7A000E3EEA17AF4EEC10AF1EE10FABCEEE66A2D
:10A7B000FCEEE75A01ED012A4BD516EE103A36F8B9
:10A7C0001320C2F580439AB2C8451CBF524292B2D0
:10A7D00002EB8737BBB234F8022FE645A3EB020742
:10A7E00020F8027F238039D0BCEC017AF1EC016AB9
:10A7F00067EE077AF0EE434AE6EEA67A16EE907A16
:10A8000017EE902AA5EB520206EE102A67EE855A43
:10A8100017EE109A26EE650A07F00048E0EE064AA9
:10A8200009F0004929EA0807F5EE407A66EE241A95
:10A830004FEA9873F1EE10FA27EEA12AF0EEE60A3D
:10A84000B0EEC71A43EA5777A0D141ED012A0023A1
:10A85000C1E715EE903A36F81320B5E7BDE8F0836E
:10A86000704700BF0000000000000044DF59375F60
:10A87000D4BE0208F0B5036884685A10002C01EBBE
:10A88000820135DDD0E90A560A1FAF1EA6F1020E7D
:10A890004FF0000C3EF8023F37F8025F42F8045FC9
:10A8A00007EE903AB8EE671A846861EE201A0CF150
:10A8B000010CBCEEE12A644512EE106A35443D807D
:10A8C000E8DCDFED270A9FED277A70EE602A22EEA2
:10A8D000875AB5EEC05AF1EE10FA3FD49FED223AF6
:10A8E000B4EEC30AF1EE10FA16DD4FF400451BE09A
:10A8F000DFED1B3A9FED1B4A70EE634A24EE845A4B
:10A90000B5EEC05AF1EE10FA27D4DFED175AB4EEC7
:10A91000E50AF1EE10FA20DC25EE057AB0EE470AE2
:10A92000BEEEE80A10EE105A002C16DD0F4C104E49
:10A93000104FA1F1040C0021226806FB0273236072
:10A940005CF8042F1B1405FB03F302EBA332CCF8D5
:10A950000020836801318B42EEDCF0BD0025E3E787
:10A96000CDCC4C3D14AE873F384F7E3F10000020C9
:10A970000D6619005FF36E3C2DE9F04702688568AB
:10A980004FEA620E012D82B00C464FEA8E0A3BDD83
:10A990000A1D01EB8506B01A0AF1040340070B44B7
:10A9A0005D4900F1AC8018885F6892ED001A80095B
:10A9B000C7F3891C00F5807701EB8709D9ED001AF0
:10A9C00021EE812A9046A8EC012A01EB8000D0ED0F
:10A9D000002A22EE813A0CF58077A3EC013AD2ED01
:10A9E000016A424601EB870898ED007A01EB8C087A
:10A9F00027EE260AA2EC010AD8ED007A67EEA60A35
:10AA0000B242E3EC010ACED1AE4575DD0AEB85001A
:10AA100050454FEACE024FEA850601DA96420FDB37
:10AA2000AEEB0507BA00204400210192FDF7B0FB10
:10AA3000019A0021A01902B0BDE8F047FDF7A8BBBC
:10AA4000A71820443D1A2B1F9908013111F0070265
:10AA50004FF0000A344429D0012A21D0022A1BD009
:10AA6000032A15D0042A0FD0052A09D0062A03D0BC
:10AA700040F804AB44F804AB40F804AB44F804AB32
:10AA800040F804AB44F804AB40F804AB44F804AB22
:10AA900040F804AB44F804AB40F804AB44F804AB12
:10AAA00040F804ABB84244F804AB25D08446A14634
:10AAB0004CF804AB203049F804AB40F81CAC20340F
:10AAC00044F81CACCCF804A0C9F804A040F814ACBD
:10AAD00044F814AC40F810AC44F810AC40F80CAC9E
:10AAE00044F80CAC40F808ACB84244F808AC40F864
:10AAF00004AC44F804ACD9D102B0BDE8F0871F889B
:10AB0000D2ED006AB80900F5807701EB870C9CED67
:10AB1000007A01EB80086BE7D0AA0208F0B590F943
:10AB20003030032B13D8DFE813F04B01A7000400EB
:10AB30001300866801EB860E8E4540F0B581DFED8F
:10AB4000D30AB0EE601AC1ED000A81ED001AF0BD23
:10AB50008668002EFBDDCE4FDFEDCE6A3B68CE4C23
:10AB6000CE4D16F0030C08464FF0000232D0BCF177
:10AB7000010F19D0BCF1020F0ED004FB035313F4E4
:10AB8000702FC3F3034205D107EE902AB8EEE70A0F
:10AB900081ED000A081D012204FB035313F4702FFA
:10ABA00000F0E8830132043004FB035313F4702FE8
:10ABB0000BD102EE902AB8EEE23AD0ED003A23EE45
:10ABC000264A63EE844AC0ED004A0132B24200F1E7
:10ABD00004004FD005EE102A04FB0351F8EEC55ACD
:10ABE00011F4702F25EEA66A04FB015302F1010255
:10ABF00005D1D0ED007A27EE860A80ED000A13F425
:10AC0000702F00F104010BD100EE902AB8EEE07A2B
:10AC100090ED011A67EE261A21EE212A80ED012A15
:10AC2000501C02EE900A901C04EE100A04FB035C18
:10AC3000B8EEE23AF8EEC44A1CF4702F63EE263AFE
:10AC400024EEA65A04FB0C5302F1030205D1D1ED08
:10AC5000015A25EEA36A81ED016A13F4702F05D124
:10AC6000D1ED027A27EE850A81ED020AB24201F1A6
:10AC70000C00AFD13B60F0BD854C874E2568874BFB
:10AC8000826806FB0537C7F3024C06EE90CAB8EEA1
:10AC9000E62AF5EE001AB7EE007A002AA2EE217A33
:10ACA00027607FF754AF9000041FA60802EE902A99
:10ACB000013601EB820516F00702B8EEE23ADFED4D
:10ACC000730A084600F00183012A67D0022A56D091
:10ACD000032A46D0042A32D0052A1FD0062A0ED0D5
:10ACE000B4EEC37AF1EE10FAF0EE470AC0F26683D2
:10ACF000DFED660A0F4608463C6840F8044B70EEEC
:10AD0000870AF4EEC30AF1EE10FAC0F25083DFEDC9
:10AD10005F0A8C46DCF8002040F8042B70EE870AAE
:10AD2000F4EEC30AF1EE10FA80F23D83FDEEE04A44
:10AD300014EE903A01EB83073C6840F8044B70EE48
:10AD4000870AF4EEC30AF1EE10FA80F20F83BDEE2B
:10AD5000E05A15EE106A01EB860CDCF8002040F892
:10AD6000042B70EE870AF4EEC30AF1EE10FAC0F27B
:10AD7000F682DFED460A0F463C6840F8044B70EE61
:10AD8000870AF4EEC30AF1EE10FAC0F2E182DFEDB9
:10AD90003F0A8C46DCF8002040F8042B70EE870A4E
:10ADA000F4EEC30AF1EE10FAC0F2CB82DFED370AFF
:10ADB0000F463C6840F8044BA84240F08682F0BD44
:10ADC0008568002D7FF7C3AEAA00171FBA08304E62
:10ADD000DFED2E6A33689FED327A2F4C013212F08C
:10ADE000030701EB850C08462C4D1CD0012F0DD01C
:10ADF000022F40F0CC8204FB035313F4702F08BFE2
:10AE0000D0ED006AE0EC016A66EE876A04FB03534A
:10AE100013F4702F08BFD0ED006AE0EC016A84459E
:10AE200066EE876A30D004FB035313F4702F08BF1B
:10AE3000D0ED006A04FB0351024611F4702F26EE98
:10AE4000873AE2EC016A01D190ED013A82ED003AD5
:10AE500004FB015717F4702F23EE071A04FB075366
:10AE600008BF92ED011A13F4702F61EE071A02F178
:10AE70000C0008BFD2ED021A82ED011A844561EE82
:10AE8000876AC2ED021ACED13360F0BD0000000027
:10AE9000100000200000803D0D6619005FF36E3C3D
:10AEA000AE47813F000000000F1DBE453FF447AE96
:10AEB000AEEB0704251F4FEA950C0CF1010616F0C6
:10AEC000070438463A460B4665D0012C55D0022C73
:10AED00046D0032C37D0042C28D0052C19D0062CB2
:10AEE0000AD0D1ED006AF2EC010AF4EE606AF1EEEC
:10AEF00010FA54BF0B463B4693ED007A92ED001AD0
:10AF0000B4EE417A1546F1EE10FA02F1040248BFA0
:10AF10002B46D3ED001A92ED002AF4EE421A944625
:10AF2000F1EE10FA02F1040248BF6346D3ED002AA5
:10AF300092ED003AF4EE432A1646F1EE10FA02F1D1
:10AF4000040248BF3346D3ED003A92ED004AF4EED6
:10AF5000443A1446F1EE10FA02F1040248BF2346C7
:10AF6000D3ED004A92ED005AF4EE454A1546F1EE53
:10AF700010FA02F1040248BF2B4692ED006AD3EDAD
:10AF8000005AF4EE465AF1EE10FA48BF1346164640
:10AF90000432964560D0144693ED000AB4EC012AC1
:10AFA000D2ED010A94ED013A92ED031AD2ED041AA2
:10AFB000D2ED056A92ED067AD2ED077AB4EE420A36
:10AFC000F1EE10FA48BF1346D3ED002AF4EE602AE2
:10AFD000F1EE10FA48BF2346D3ED003AF4EE433ABF
:10AFE000F1EE10FA04F1040448BF234693ED004A41
:10AFF000B4EE414AF1EE10FA02F10C0C48BF634680
:10B00000D3ED004AF4EE614AF1EE10FA02F11005B8
:10B0100048BF2B4693ED005AB4EE665AF1EE10FA93
:10B0200002F1140648BF3346D3ED005AF4EE475AF6
:10B03000F1EE10FA02F1180448BF234693ED006ABE
:10B04000B4EE676AF1EE10FA02F11C0602F120027A
:10B0500048BF334696459ED100221A60F31B9D08D7
:10B06000013515F00704D1ED007A5CD0012C4BD0EE
:10B07000022C3ED0032C31D0042C24D0052C17D028
:10B08000062C0AD03846B0EC010AB4EEE70AF1EE1D
:10B0900010FAC4BFF0EE407A39460746F0EC010AD8
:10B0A000F4EEE70AF1EE10FAC4BFF0EE607A39462A
:10B0B0008446B0EC011AB4EEE71AF1EE10FAC4BF00
:10B0C000F0EE417A61460246F0EC011AF4EEE71A1E
:10B0D000F1EE10FAC4BFF0EE617A11460346F0ECCF
:10B0E000016AF4EEE76AF1EE10FAC4BFF0EE667A98
:10B0F00019460546B0EC017AB4EEE77AF1EE10FAA3
:10B10000C4BFF0EE477A294690ED002AB4EEE72A54
:10B110000446F1EE10FAC4BFF0EE427A2146A64290
:10B1200000F1040064D08446FCEC012AF4EEE72A26
:10B13000F1EE10FA02DDF0EE627A01466046B0EC04
:10B14000013AB4EEE73AF1EE10FA02DDF0EE437A9E
:10B150006146DCED013A9CED024ADCED034A9CEDD0
:10B16000045ADCED055A9CED066AF4EEE73AF1EE7E
:10B1700010FAC8BFF0EE637AB4EEE74AC8BF0146E2
:10B18000F1EE10FAC8BFF0EE447AF4EEE74A0CF1A3
:10B190000802C8BF1146F1EE10FAC8BFF0EE647A9B
:10B1A000B4EEE75A0CF10C03C8BF1946F1EE10FAE1
:10B1B000C8BFF0EE457AF4EEE75A0CF11005C8BFAF
:10B1C0002946F1EE10FAC8BFF0EE657AB4EEE76AF0
:10B1D0000CF114040CF11807C8BF2146F1EE10FA67
:10B1E000C4BFF0EE467A3946BE420CF11C009AD13B
:10B1F000B2EE000A27EE801AA7E4FDEEE70A10EE91
:10B20000906A01EB860C37EE871A0346B4EEC31A38
:10B21000DCF8002043F8042BF1EE10FAC0F28A802B
:10B220001FEDE01A0F4671EE076A3C681C60F4EEF1
:10B23000C36AF1EE10FA5ADBDFED646A8C4676EEF3
:10B24000872ADCF800205A60F4EEC32AF1EE10FAE7
:10B2500046DBDFED5E2A0F4632EE874A3C689C6093
:10B26000B4EEC34AF1EE10FA5DDB9FED584A8C460E
:10B2700034EE075ADCF80020DA60B4EEC35AF1EE7F
:10B2800010FA49DB9FED515A0F4635EE070A3C682C
:10B290001C61B4EEC30AF1EE10FA36DB9FED4B0AE7
:10B2A0008C4670EE070ADCF800205A61F4EEC30AFF
:10B2B000F1EE10FA22DBDFED450A0F4603F11C0028
:10B2C0003C689C61A8423FF442AC70EE877AF4EE91
:10B2D000C37AF1EE10FA90DBDFED3C7A8C4692E710
:10B2E000FDEEE23A13EE900A01EB8007B4E7BDEE03
:10B2F000E62A12EE106A01EB860CA0E7FDEEE07A7A
:10B3000017EE900A01EB8007D8E7BDEEC06A16EE93
:10B31000106A01EB860CC4E7FDEEC55A15EE900AE3
:10B3200001EB8007B1E7FDEEC44A14EE906A01EB31
:10B33000860C9DE7FDEEC11A11EE900A01EB800725
:10B3400071E7BDEEE00A10EE103A01EB830730E53D
:10B35000BDEEE06A16EE106A01EB860C1AE5FDEE12
:10B36000E05A15EE903A01EB830705E5DFED170A89
:10B370008C46F2E400EE902AB8EEE07A90ED001AE6
:10B3800067EE261A21EE212A80ED002A0AE404FB4A
:10B39000035313F4702F08BFD1ED006AE0EC016A8B
:10B3A00066EE876A27E5DFED090A0F46C4E4BDEEC5
:10B3B000E04A14EE106A01EB860CABE4FDEEC73AEE
:10B3C00013EE903A01EB830795E400BF0000000004
:10B3D000DFED887AB4EEE70AF1EE10FA10B400F26D
:10B3E000178130EE001AF7EE001AB0EE615AA1EEA6
:10B3F000415A814A814BDFED824A9FED824AD0ED6E
:10B40000006A8068A5EE244A0028B6EE006AFDEEC8
:10B41000C43AF8EEE65AB8EEE30A13EE904A34EE78
:10B42000402A02EB840CBEEECC2A9CED007A12EE90
:10B43000102A03EB820367EE062A93ED003A62EED0
:10B44000830AC0EEA57A81EEA71A40F3CF8084006C
:10B45000221F9308013313F0070401EB800061D031
:10B46000012C51D0022C43D0032C35D0042C27D0F2
:10B47000052C19D0062C0BD0D1ED001A21EEA75ABD
:10B48000FDEEC54AB8EEE44A24EE016AA1EC016A79
:10B49000D1ED003A63EEA76AFDEEE65AB8EEE50A92
:10B4A00020EE012AA1EC012A91ED007A67EE272A0D
:10B4B000BDEEE23AF8EEC30A60EE811AE1EC011A41
:10B4C00091ED005A65EE274ABDEEE44AB8EEC46A33
:10B4D00066EE013AE1EC013AD1ED006A66EEA75A58
:10B4E000BDEEE50AB8EEC02A22EE017AA1EC017A9F
:10B4F000D1ED002A22EEA73AFDEEC30AF8EEE01ADB
:10B5000021EE815AA1EC015AD1ED004A24EEA74A5E
:10B51000BDEEC46AF8EEC63A63EE816AE1EC016AF8
:10B52000814263D0D1ED005A25EEA70A8C46BDEECC
:10B53000C02A2031B8EEC27A814267EE012AECECD3
:10B54000012A11ED073ADCED010A63EE271A20EE1D
:10B55000A75AFDEEE14ABDEEC54AB8EEE46AF8EE40
:10B56000C43A66EE016A23EE810ACCED006A11ED61
:10B57000052A11ED047A51ED035A51ED022A11ED1D
:10B58000013A01ED060A62EE270A67EE271A25EE58
:10B59000A74A22EEA76A63EE273AFDEEE04ABDEE27
:10B5A000E15ABDEEC42ABDEEC67AFDEEE36AF8EEBE
:10B5B000E42AB8EEC53AF8EEC25AF8EEC70AF8EE39
:10B5C000E61A22EE814A63EE013A65EE814A20EEE8
:10B5D000816A21EE815A01ED054A41ED043A41EDBF
:10B5E000034A01ED026A01ED015A9BD15DF8044B5B
:10B5F000704700BF8FC2F53E7C0B02087807020837
:10B600000000D8C200000043B81E053F17B7D1386C
:10B610005FED030AB4EEE00AF1EE10FAE6DB8468AF
:10B62000D1ED001A30EE600A01EB8400884230EE62
:10B63000001A00F0A88001F1040C604500F0A3801E
:10B64000A0EB0C02043A9208013212F007026346A2
:10B650004CD0012A3FD0022A34D0032A29D0042A10
:10B660001ED0052A13D0062A08D0B3EC017AF4EED6
:10B67000C71AF1EE10FAB8BFF0EE471AB3EC012A80
:10B68000F4EEC21AF1EE10FAB8BFF0EE421AF3EC83
:10B69000012AF4EEE21AF1EE10FAB8BFF0EE621AE7
:10B6A000B3EC013AF4EEC31AF1EE10FAB8BFF0EEC3
:10B6B000431AF3EC013AF4EEE31AF1EE10FAB8BFD4
:10B6C000F0EE631AB3EC014AF4EEC41AF1EE10FA8C
:10B6D000B8BFF0EE441AF3EC014AF4EEE41AF1EECE
:10B6E00010FAB8BFF0EE641A98424CD09C46BCECFD
:10B6F000015A93ED016ADCED016AD3ED035AD3EDF3
:10B70000047AD3ED050A93ED060A93ED077AF4EE79
:10B71000C51AF1EE10FAB8BFF0EE451AF4EEC61AEB
:10B72000F1EE10FAB8BFF0EE461AF4EEE61AF1EEBA
:10B7300010FAB8BFF0EE661AF4EEE51AF1EE10FA60
:10B74000B8BFF0EE651AF4EEE71AF1EE10FAB8BFE2
:10B75000F0EE671AF4EEE01AF1EE10FAB8BFF0EE70
:10B76000601AF4EEC01AF1EE10FAB8BFF0EE401A0B
:10B77000F4EEC71AF1EE10FA03F12003B8BFF0EEB1
:10B78000471A9842B2D11FED5F2A71EE822AB7EEB6
:10B79000005A012CC5EE224A7FF728AF0431441A23
:10B7A000221F9308013313F00304B1EE004A48D07E
:10B7B000012C2DD0022C15D091ED003A63EE243AE5
:10B7C00035EE636A63EE846AF0EE630A66EE865ACB
:10B7D00065EE867AD7EE860AE0EE813A23EEA10A7C
:10B7E000A1EC010A91ED007A27EE242A75EE422A97
:10B7F00022EE043AF0EE426A63EE223A23EEA26AA7
:10B80000D6EE226AA6EE812A62EE215AE1EC015AB6
:10B81000D1ED007A67EEA40A35EE600A20EE847A54
:10B82000B0EE603A27EE002A62EE002A92EE803AED
:10B83000E3EE010A60EEA13AE1EC013A88423FF4FE
:10B84000D5AE91ED006A66EE247A8C4675EE670AF5
:10B8500067EE846AB0EE677A66EEA05A103125EE84
:10B86000A00A884290EE207AE7EE017A27EEA12A1C
:10B87000ACEC012A51ED032A9CED013A62EEA47A68
:10B8800063EE246A75EE670A27EE846AF0EE672A93
:10B8900066EE205A75EE663A25EEA07A26EE840A08
:10B8A000D7EE202A20EE232AE2EE817A22EE233AF6
:10B8B00027EEA16AF0EE660A8CED006AD3EE230A49
:10B8C00051ED013A23EEA40AE0EE816A35EE407AAA
:10B8D00020EE042AF0EE400A62EE072A66EEA15A34
:10B8E00022EE873A41ED025AD3EE070AA0EE810A12
:10B8F00060EE217A41ED017AA3D177E6F1EE007A8C
:10B9000020EE270A10B4FDEEC00AA84C806810EEA5
:10B91000903A03F1010C04EB0C1C04EB0313B8EE9A
:10B92000E01A07EE100AD3ED004A93ED015AD3ED69
:10B93000025A93ED036A9CED003ADCED016ADCEDFE
:10B94000022ADCED037A70EE411AB8EEC74A33EEF4
:10B95000640A76EEC50A32EEE51A37EEC67AB7EE1D
:10B96000002A0128C2EE043AE1EE804AA1EEA05A74
:10B97000E1EE815AA1EE876A40F31481131D02EBB8
:10B980008000C21A141FA208013212F00304DFED76
:10B99000887A72D0012C49D0022C23D0F0EE451ABF
:10B9A000E3EEA41AB0EE652AA1EEA32AB0EE463A61
:10B9B000A2EE233AF0EE637A24EE030AFDEEC02AEB
:10B9C00012EE90CA01EB8C02F2EC016AF8EEE20A88
:10B9D00092ED001A30EE607A71EE661AE7EE216A97
:10B9E000E3EC016A77EEA37AB0EE452AA7EEA42A2B
:10B9F000B0EE653AA2EE273AB0EE460AA3EE270A69
:10BA000064EE000AFDEEE02A12EE904A01EB840C8F
:10BA1000FCEC016AB8EEE21ADCED001A30EEC17AF5
:10BA200031EEE62AE7EE026AE3EC016A77EEA37AEA
:10BA3000B0EE453AA7EEA43AB0EE650AA3EE270AA7
:10BA4000F0EE460AE0EE270A24EE201AFDEEC12AA7
:10BA500012EE902A01EB8204F4EC016AF8EEE21A8D
:10BA600094ED002A31EE617A32EE663AE7EE036A2F
:10BA7000E3EC016A834200F0958077EEA37AB0EEA2
:10BA8000450AA7EEA40A9C461033F0EE652A77EE2D
:10BA9000A30AE0EE272A8342B0EE451AA0EEA41ACC
:10BAA000F0EE466AE2EEA76AB0EE652AA1EE202A21
:10BAB00024EE260AB0EE467AA2EE207ABDEEC02A27
:10BAC00070EEA31A12EE102AB0EE453A01EB820492
:10BAD000A1EEA43AD4ED002A94ED011AF8EEC26A60
:10BAE00024EE077A31EE622A30EE660AF0EE650A3D
:10BAF000E3EE210AE0EE022ABDEEC73A71EEA37A28
:10BB000013EE102AF0EE466AE0EEA16A01EB820421
:10BB1000B0EE452AECEC012AA7EEA42AD4ED000AE7
:10BB2000D4ED012AF8EEC31A24EE261A37EE617A14
:10BB300032EEE00AF0EE656AE2EE276AE7EE000A0E
:10BB4000FDEEC11AB0EE467A11EE902AA6EEA77A63
:10BB500001EB820443ED030A94ED003AD4ED010AAF
:10BB6000F8EEE12A30EEC32A31EE620A24EE071A1B
:10BB7000A0EE023AFDEEC11A8CED013A11EE902AC8
:10BB800001EB8204D4ED000A94ED017AB8EEE13ABB
:10BB900077EE602A31EE432AE2EE220A43ED010AF3
:10BBA0007FF46BAF5DF8044B704700BFD8C202084A
:10BBB000000000002DE9F843F7EE007AD0F8089075
:10BBC000B4EE670AF1EE10FA2DED028B16464FEA3D
:10BBD000890702EB890500F02F81B4EEE70AF1EE48
:10BBE00010FAB0EE408A0C4640F3B780B9F1010F6D
:10BBF00087EE802A40F3A6802B1DE919CA1A101F70
:10BC00008208013212F0030040D0012826D0022819
:10BC10000ED0221DF2EC014A92ED007A37EEE78A4F
:10BC200077EE642A77EE827AE8EE224AE3EC014A64
:10BC3000BDEEE73A13EE100A04EB8008F8EC018A37
:10BC4000F8EEC33A98ED006A77EEE35A36EE680AEA
:10BC500077EE827AE5EE808AE3EC018AFDEEE76A10
:10BC600016EE90CA04EB8C09B9EC014AF8EEE60A2C
:10BC700099ED001A37EEE05A71EE441A77EE827AA7
:10BC8000A5EE214AA3EC014A8B425BD0BDEEE78AC8
:10BC900037EE827A18EE102AFDEEC74A04EB8200D6
:10BCA00090ED004AF8EEC82AF8EEE43A90ED018AE9
:10BCB00077EE028A37EEE23A37EE630A38EE447ADC
:10BCC00014EE90CAA3EE074A984604EB8C09FDEEE9
:10BCD000E85AA8EC014AD9ED002AD9ED014A34EE20
:10BCE000E23A15EE902AE0EE032A04EB82001033CC
:10BCF000B8EEE56A43ED032A78EE820AD0ED003A09
:10BD000038EEC61AD0ED018A38EEE30AFDEEE06A9D
:10BD1000E1EE003AB8EEE65AC8ED013A16EE908A26
:10BD200004EB880CDCED005A70EEC51A70EE827AD6
:10BD3000DCED010A30EEE56AE1EE865A43ED015A88
:10BD40008B42A3D1002F78D0BDEC028B3A46294616
:10BD50003046BDE8F843FDF7EDBA27B13A46002179
:10BD60002846FCF715FAB9F1010FEBDD201D3C4424
:10BD7000231AB7EE007A5B07F0EE474A15D590ED2F
:10BD8000006AD5ED017AD5ED020AE7EE067A77EE84
:10BD9000476AC5ED017AB0EC010AE0EE260A84425A
:10BDA00037EE087AC5ED020ACCD0BDEEC72A34EED4
:10BDB000C75A12EE101AF8EEC22A05EB810290ED76
:10BDC000004AD2ED005AD2ED018A35EE223A84467D
:10BDD000E3EE045A37EE081AC2ED005ABCEC016AD1
:10BDE00077EE623AFDEEC17AE6EE238A17EE909A7C
:10BDF00074EEC11AF8EEE76AC2ED018A05EB89011B
:10BE000090ED010A91ED004A71EEA60A6046A0EE9F
:10BE1000804A0B46043331EE665A81ED004AD1ED7B
:10BE2000011A31EE087AB0EC011AE1EE051A8442EB
:10BE3000C3ED001AB9D185E71FB9BDEC028BBDE88F
:10BE4000F88304463A462846FDF774FAA768BF000F
:10BE500078E700BF43682DE9F0415C1E07EE104A09
:10BE6000B8EEC71AB7EE006A61EE001AB4EE460AE1
:10BE7000FDEEE17AF1EE10FA17EE905A14BF0122AE
:10BE800000222A44F6EE005AB8EEE70A76EE616A1E
:10BE900000EB850600EB8202F4EEE50AF1EE10FA03
:10BEA00031EEC02A76EE802AF368D268C0F2AD8007
:10BEB000B6EE080A30EEE57AF4EEC00AF1EE10FABA
:10BEC00037EE073A40F11E81876836EE436A002F4D
:10BED00026EE225A66EE022A40F39580B800041F2F
:10BEE000A508013515F0030601EB870C3BD0012EA8
:10BEF00025D0022E11D0B1EC012AD3ED007A72EEDA
:10BF0000676AE5EE267AE3EC017AD2ED000A32EEBA
:10BF1000607AE7EE220AE2EC010AB1EC010A93ED45
:10BF2000003A70EE435AA5EE253AA3EC013AD2ED61
:10BF3000003A30EE634AE4EE223AE2EC013AB1EC28
:10BF4000011AD3ED001A71EE614A6145E5EE241A3B
:10BF5000E3EC011A92ED002A31EE426AA6EE222AA3
:10BF6000A2EC012A4FD08846F8EC016AD3ED007AA2
:10BF700076EEE70A1F46E5EE207A104610321031C1
:10BF8000E7EC017A12ED047A36EEC70A1033A0EE20
:10BF9000227AA0EC017A98ED003A53ED033A73EE61
:10BFA000635AE5EE253AC7ED003A12ED034A33EE47
:10BFB000441AA1EE224A80ED004A51ED024AD7ED23
:10BFC000011A34EEE12A6145E5EE021A43ED021A48
:10BFD000D0ED016A34EEE66AE6EE226A42ED026ACC
:10BFE00053ED017A51ED010A30EEE77AE5EE077A7A
:10BFF00043ED017A12ED010A30EEC03AA3EE220AB7
:10C0000002ED010AAFD1BDE8F08170EEA00A9FED0C
:10C01000973A846860EEA03A002C23EE834AFCEE47
:10C02000C44A14EE900A1FFA80FCECDDDFF850825F
:10C030009FED8F7A8F4ED8F800008F4D01EB84076B
:10C04000E40717D5D3ED001AB1EC011A31EE615AAD
:10C0500006FB005065EE227ABCEB104F34BFB0EE09
:10C06000470AB0EE460AE0EE271AE3EC011AD2EDD9
:10C07000006A39E0B1EC013AD3ED003A33EE634A9D
:10C0800006FB0054BCEB144F64EE224A34BFB0EE02
:10C09000471AB0EE461AE1EE243A06FB04501C465D
:10C0A0009646E4EC013AD2ED001A33EE615ABCEB4D
:10C0B000104F65EE027A34BFB0EE470AB0EE460A82
:10C0C000E7EE811AEEEC011AD3ED016AB1EC011A28
:10C0D00071EE665A234665EEA20AE0EE206AE3ECB2
:10C0E000016AD2ED016A724671EE665AB94265EE96
:10C0F000820AE0EE806AE2EC016ABBD1C8F8000077
:10C10000BDE8F08173EE653A9FED5C4A856863EEA9
:10C11000841AB0EE001A61EEA14A71EEE57AE4EEFF
:10C12000815A002DB0EE465AA7EEA25AA7EE826AB7
:10C1300062EEA52A22EE252A7FF765AFAE00371FF3
:10C14000B808013010F0030401EB850C3CD0012C41
:10C1500025D0022C11D0F1EC016AD3ED000A62EE79
:10C16000A65A22EE267AE0EE855AE3EC015A92EDC9
:10C17000000AA0EE067AA2EC017AB1EC013AD3ED06
:10C18000003A22EE834A22EE031AA3EE854AA3EC7C
:10C19000014AD2ED001AA1EE861AA2EC011AF1ECC6
:10C1A000017AD3ED004A62EEA76A62EE270AE4EE56
:10C1B000856A6145E3EC016AD2ED005AE5EE860A34
:10C1C000E2EC010A3FF41FAF8846B8EC017A93ED28
:10C1D000000A22EE873A1D46A0EE053A16461032B6
:10C1E00062EE073AA5EC013A12ED044AE4EE063A93
:10C1F00010311033E6EC013A98ED001A53ED031AB2
:10C2000062EE814A62EE017AE1EE854AC5ED004AAE
:10C2100052ED036AE6EE867AC6ED007A11ED027AF7
:10C22000D5ED010A62EE875A22EE070AE0EE855A42
:10C23000614543ED025A96ED013AA3EE060A02ED7E
:10C24000020A51ED013A13ED014A22EEA31A62EE01
:10C25000231AA4EE051A03ED011A52ED014AE4EE89
:10C26000861A42ED011AAFD1CDE600BF00FF7F472D
:10C27000000000000D6619005FF36E3C3333333F5E
:10C2800010000020436803F1FF3C07EE90CAF8EE6F
:10C29000E70AB7EE007A20EE801AB4EE470ABDEE48
:10C2A000C10AF1EE10FA10EE103A14BF012200227A
:10C2B0001A4400EB830C00EB82028068DCF80C303F
:10C2C000D268F8EEC01A002831EE612A40F3B98036
:10C2D00010B503EB8004800004388008013010F0B2
:10C2E00007004AD001283CD0022830D0032824D0AF
:10C2F000042818D005280CD0062840F09780F3ECCD
:10C30000013AB2EC014A74EE634AE2EE243AE1ECFF
:10C31000013AB3EC015AF2EC015A35EEC56AA2EECD
:10C32000065AA1EC015AF3EC017AF2EC010A30EE64
:10C33000E77AE2EE077AE1EC017AB3EC011AB2ECAB
:10C34000010A70EE411AA2EE211AA1EC011AF3ECD7
:10C35000012AF2EC016A36EEE23AE2EE032AE1EC5F
:10C36000012AF3EC013AB2EC014A74EE634AA342AB
:10C37000E2EE243AE1EC013A57D09E469446BEECF8
:10C38000015AFCEC015A35EEC56A0846A2EE065A7F
:10C39000203120332032A0EC015A53ED077A52EDC0
:10C3A000070A30EEE77AE2EE077A41ED077A9EED72
:10C3B000011A9CED010A70EE411AA2EE211A80EDDD
:10C3C000011A53ED052A52ED056A36EEE23AA34210
:10C3D000E2EE032A41ED052A53ED043A12ED044A38
:10C3E00074EE634AE2EE243A41ED043A13ED035A47
:10C3F00052ED035A35EEC56AA2EE065A01ED035A14
:10C4000053ED027A52ED020A30EEE77AE2EE077A55
:10C4100041ED027A13ED011A12ED010A70EE411A94
:10C42000A2EE211A01ED011AA7D110BDF3EC012AE9
:10C43000F2EC016A36EEE23AE2EE032AE1EC012A7E
:10C440005DE770472DE9F0411D4603689FED487A8E
:10C450005B1002EB8308174600222DED028B3A6039
:10C46000C8F80020D1ED027A424B37EE870A044625
:10C47000FDEEC00A0E46F8EEE06A10EE908A30EE4D
:10C48000661ABEEECC1A11EE10CA03EB8C0E3A4BB4
:10C490009EED008A03EB8802D2ED001A91F8243059
:10C4A00091F8268068EE218A002B3ED096ED000A96
:10C4B00029462046FFF7E6FE96ED110A3A46294640
:10C4C0002046FFF71BFAB0EE680A2A463946204696
:10C4D000FFF770FBB8F1000F33D196ED0E0A274F2E
:10C4E00029462046FEF774FF96ED100A244E20469A
:10C4F000F0EE680A2946FEF7BDF92946FEF73CFA38
:10C500003968204800FB0162C2F301433A6084F8B5
:10C5100030302468BDEC028B601005EB800C0027E6
:10C520002F60CCF80070BDE8F0813946FEF712F9B3
:10C53000D6ED0F0A96ED000A39462046FFF78AFC31
:10C54000B4E729462046FEF7E9FA96ED0E0A294699
:10C550002046FEF73DFF294696ED100AF0EE680AE8
:10C560002046FEF787F92946FEF706FAD1E700BF15
:10C5700000000043780702087C0B0208100000202E
:10C580005FF36E3C0D6619002DE9F04301219DB06B
:10C5900004464FF48000FDF785FA01210520FDF7E0
:10C5A00081FA01214FF480700025FDF793FA0327EB
:10C5B000FF2301A94E4801938DF80B508DF80870A8
:10C5C000FDF784F801A94B4801978DF80B508DF8C1
:10C5D0000870FDF77BF848480F944FF480614FF4E2
:10C5E00080764FF400344FF400524FF00A08CDE942
:10C5F0001664CDE90D500126CDE912514FF40069C2
:10C600000DA93E483E4CCDE91492CDE91058CDE934
:10C610001856CDE91A5512F0FBFB3146374812F097
:10C6200023FC4FF4403303A84FF470610493069148
:10C63000039505950FF0CAFF07A92046CDE90955D6
:10C64000CDF82C900795ADF820608DF830800FF074
:10C6500093FF32462046072302210FF0D7FF3946C9
:10C660002046072302220FF0D1FF3A4641462046DA
:10C6700007230FF0CBFF31462046072304220FF09B
:10C68000C5FF2046072305220B210FF0BFFF2046E0
:10C690000723062204210FF0B9FF07231A46194683
:10C6A00020460FF0B3FF20460723082205210FF094
:10C6B000ADFF20460723092206210FF0A7FF07231D
:10C6C0004246294620460FF0A1FF314620460FF092
:10C6D000F7FF314620460FF08FFF314620460FF01E
:10C6E000E5FF20460FF0DCFF1DB0BDE8F08300BF82
:10C6F00000000240000802404C200140106402404B
:10C700000020014001480FF0CBBF00BF00200140D6
:10C710002DE9F04FB2F1000BB8BF026983B0B8BF8A
:10C720009344002B009140F384804FF00009426A4B
:10C730009FED434ADFED434AD0F80480424D019219
:10C7400049464C464F46CE469A4603690BEB0706D0
:10C750009E42A6EB0307B8BF374608EB070218F85E
:10C760000770537835F91320036B07EE102A9E42A9
:10C77000019AA8BFF61A93191FFA8EFC06EE10CA8A
:10C780005B7835F917C035F91330965D009F35F9A0
:10C79000162007EE90CA06EE903AB8EEE71AB8EE09
:10C7A000C70A05EE102A70EE415AB8EEE62AF8EEF6
:10C7B000460AF8EEC52A32EE253A60EE841A72EE89
:10C7C000813A33EE626A01F01F0CE1EE863ABE4414
:10C7D0004FEA2E4763EEA47AF5EEC07AF1EE10FA36
:10C7E000D4BF234644F00103BCF11F0F4FEA4304BA
:10C7F00005D10C9A4E0909F1200942F82630BAEB0E
:10C800002E4F01F10101A0DC11F01F070DD00C9893
:10C810001F2F04D14D0909F1200940F825400131AD
:10C8200011F01F074FEA4404F2D1484603B0BDE8B7
:10C83000F08F4FF00009484603B0BDE8F08F00BF0D
:10C84000000080370000003814000020002A00F0AB
:10C85000E880F0B5551ED0E900320831B6EE047A12
:10C86000FEEE047A5C1E54BF234603F2FF73DF061C
:10C870001E4617D190ED035AD0ED075A90ED026A8B
:10C88000D0ED066A90ED044AD0ED084A80ED025AD8
:10C8900095EE046AD5EEA46AC0ED065A80ED036AEF
:10C8A000C0ED076A03F17D07C7F30A0C02EB8C0E9B
:10C8B0009EED000A51ED020AE0EE070AC6F30A06F1
:10C8C00003F5997402EB8607C4F30A06C7ED000A64
:10C8D00002EB860C9CED001AA1EE070A03F17F041F
:10C8E000C4F30A0703F51076A0EEA70A02EB870E41
:10C8F000C6F30A0C02EB8C048EED000AD4ED001A8C
:10C90000A1EE871A03F59A77C7F30A0603F2FD3EF4
:10C91000A0EE271A02EB860CCEF30A0402EB840782
:10C920008CED001A97ED002AE2EE071A03F2422678
:10C93000C6F30A0402EB8407E1EE271A03F29546D8
:10C94000C6F30A0402EB840EC7ED001A51ED022A69
:10C9500090ED0A3A51ED016A72EE623AF0EE665AD3
:10C96000E1EEA73A03F2FF3CCCF30A0603F263546C
:10C97000E3EE232AC4F30A0702EB860602EB870CD8
:10C9800041ED022A9EED005AE5EE075A03F2974464
:10C99000C4F30A0703F25964C6ED005A9CED006A1D
:10C9A000A6EE075A02EB8707C4F30A0E02EB8E04C9
:10C9B000A5EEA75A03F2655ECEF30A0603F2EF7CFA
:10C9C00087ED005A94ED004AA4EE076A02EB860E4A
:10C9D000CCF30A0602EB860CA5EE276A03F25B662F
:10C9E000C6F30A0602EB86078EED006ADCED004A0C
:10C9F000A4EE874A0831013D6C1CA6EE274A87ED5C
:10CA0000004A11ED030AD0ED0A0A34EEC01AA4EE72
:10CA1000271AA0EE810A01ED030A7FF423AF036019
:10CA2000F0BD704770B50268541E2DED028B00F109
:10CA3000D88104602246E506436817D190ED036A69
:10CA4000D0ED076A90ED027AD0ED067A90ED045AA7
:10CA5000D0ED085A80ED026A96EE057AD6EEA57AF8
:10CA6000C0ED066A80ED037AC0ED077A90ED0B0AFF
:10CA700090ED0C1A90ED0A2AF7EE000A70EEC01A3B
:10CA8000C1EE812A72EE823AF4EEE03AF1EE10FA4B
:10CA9000A8BF73EEE03AF5EEC03AF1EE10FAC0ED41
:10CAA0000A3A05D8B7EE003A73EE833AC0ED0A3A77
:10CAB000B6EE004AF4EEC43AF1EE10FAA5BFB7EEB6
:10CAC000004A34EE634A33EEA34A34EE044ADFED03
:10CAD000C74AC74DD1ED001A64EE248A21EE238A9D
:10CAE000FDEEE86AFDEEC80A16EE906AB8EEE02A9E
:10CAF00005EB860CB6EE006AB0EE485ADCED004A53
:10CB0000DCED015A90ED0D4AA1EE065AC2F30B0C72
:10CB100010EE902A38EE426AB0EE618A2244BEEEF0
:10CB2000E88A501C961CB4EEC51AC0F30B0EC6F36F
:10CB30000B0518EE106A06F30F0623F81C60F1EEE1
:10CB400010FA33F91EC033F915E0B8EEE67A98BF53
:10CB500035EE415A78EEC77ABDEEC51A35EEE40AD5
:10CB600008EE90CA07EE10EA551EC2F30B0EC5F38D
:10CB70000B06E7EE804A33F91E5033F916C0DFED9D
:10CB80009D7AB8EEC13AF8EEE86A35EE435AB8EE4F
:10CB9000C70A26EEA78A06EE905AF7EE002A00EEA4
:10CBA00090CA36EE622A72EEE43A35EE623A60EEF0
:10CBB000272AB8EEE60A11EE100AB8EEE01AF0EEF7
:10CBC000488A90EE278A2044461CE1EE678AC6F325
:10CBD0000B0C851CE0EE672A33F91CE0F6EE005AD8
:10CBE000F0EE480AE8EEA50AC5F30B0604F500646A
:10CBF000A2EEA58A33F916C001EE10EA38EE207ACB
:10CC000000F1FF3ED2EE070ACEF30B05C4F30B048E
:10CC100033F9156026EE208AF0EE610AA8EEA58AA7
:10CC200002F60105F8EEC18A66EE082A08EE106ADF
:10CC3000E0EE272AC5F30B0600EE10CAC0F30B0C7A
:10CC400068EEA76A33F91CE0B8EEC07AB8EEC81AED
:10CC500000EE10EAB0EE668AA1EE678A02F6020CD8
:10CC6000CCF30B05B8EEC01A67EE278AD1EE276A1F
:10CC7000E1EE678AB0EE667AA8EEA57AE8EE256A5C
:10CC8000D4EEA20A77EE268AD1ED012AD8EE836A85
:10CC900065EE266AE8EE256A25EE268AA1EE278A49
:10CCA000E3EE880AE0EE841AC1ED001AF0EE621A93
:10CCB000FEEEE81A11EE90EA0EF30F0E23F814E0E0
:10CCC00033F9164033F9156000F50065C5F30B0C18
:10CCD00000EE104A07EE106A33F91C4000F6010618
:10CCE000C6F30B0508EE104A00F2FF7400F60200CE
:10CCF00033F915C0C0F30B06C4F30B0502F5006051
:10CD000033F9154000EE90CA02F2FF7233F916C0F3
:10CD1000C0F30B06C2F30B05B8EEC01AF8EEC78AD3
:10CD200000EE104A33F9164033F9153068EEA76A61
:10CD3000F8EEE01AF8EEC08A00EE104A21EE277AEB
:10CD4000B8EEC81A08EE103AB8EEC00A61EEA71A9B
:10CD5000B8EEC88AF0EE610AE8EEE71AF0EE478A0C
:10CD600090EE277AE8EE678AE0EE676AB0EE478ACF
:10CD7000A6EEA58AA8EEA57AD1EE270A78EE076A74
:10CD800092EE267A02EE10CAB8EEC28AF0EE606A1F
:10CD900028EE272AE1EEA56AA1EE672A27EE067A99
:10CDA000E2EE250AA8EEA57A76EEA00A67EE068ADC
:10CDB000D0EE836AE0EE278A26EE853AB0EE626A0C
:10CDC000A1EEA53A94EEA86ABDEC028B63EE054A8B
:10CDD000E1EE274AA3EEA46AE4EE062AC1ED012A99
:10CDE00070BD02F6FF721446026024E60000804522
:10CDF000800F020800000038D0ED0D6AD0ED0E3A29
:10CE000090ED0C2A90ED0A3AD0ED0B1AD0ED0F4AB6
:10CE100090ED105A002A00F008822DE9F04FDFED66
:10CE20000D7A9FED0D0ADFED0D0A2DED088B02F155
:10CE3000FF3A62EE278AD0E900329FED098AB1EE0F
:10CE4000666A01F1080CF6EE002AB2EE041A42F608
:10CE5000525BCEE1000080390000C842004092459C
:10CE60000000704290ED039A90ED077AD0ED029A9F
:10CE700090ED064AD0ED04BAD0ED085A80ED029A42
:10CE8000D9EE2B9A97EE254A79EE22AA37EE22BAEE
:10CE9000C0ED039A80ED074A80ED067AB0EE41AA14
:10CEA000AAEE88AA03F16406C6F30D0803F1700424
:10CEB000FDEECAAAC4F30D011AEE907ADE19741CB5
:10CEC000C4F30D09C6F30D0632F919E032F91670F4
:10CED00009EE10EA07EE107AB8EEC94AF8EEC79AE2
:10CEE00064EE27BAF8EEEA5AE9EEE7BAC5F30D05A3
:10CEF00003F213143AEE65AA1CED029A5CED015A96
:10CF00002AEE2B7A79EE25AAA9EEA77AC4F30D0EA4
:10CF100003F17204C4F30D09BEEECA7A0AF1FF3AB6
:10CF200017EE106A06F30F0722F8187032F9118015
:10CF300004EE108AF8EEC49A03F2052169EEA7BA4E
:10CF4000C1F30D0726EEAB4A03F21516AAEEA14A6D
:10CF5000C6F30D060CF1080CF0EE60AAEBEE00AA89
:10CF6000BAF1FF3FB0EE44BABEEECABABDEEEA7AFD
:10CF70001BEE104A04F30F0822F8158032F91EE068
:10CF80000AEE10EAF8EECA9A17EE101A29EEA7BABE
:10CF900003EB0104E6EE8BBA03F20721C1F30D0E99
:10CFA000B8EEC7AAE6EE04BA03F29535C5F30D054F
:10CFB0007AEECAAAF0EE6B9AFEEECA9A04EB0B0860
:10CFC00019EE901A01F30F0122F8191032F91770B7
:10CFD00007EE107AB8EEC7AA04F535542AEE277A80
:10CFE00003F29737A6EE87BA04F11304C4F30D04D5
:10CFF000C8F30D08A6EE2BBAB0EE004AF0EE4BBA1D
:10D00000FEEECABA1BEE909A09F30F0122F8161031
:10D0100032F9155009EE905AB8EEE9AA03F590518D
:10D020006AEE279A03F60B26A6EEA97A01F1020111
:10D03000C6F30D09C7F30D05ABEE067AC1F30D0774
:10D04000E7EE069ABEEECA7A39EEE4BA17EE106A37
:10D0500006F30F0122F81E1032F9144032F918605D
:10D0600032F919E007EE104A0BEE906AB8EEC7AA43
:10D07000F8EEEBBA2AEE27AA07EE10EAABEEE7AA23
:10D0800003F5905103F60D24B8EEC77A6AEE8AAA2A
:10D0900027EE277AEBEEA7AA01F10401C1F30D08F0
:10D0A000C4F30D0EA2EE2ABA03F51B5101F11001D3
:10D0B000C1F30D04E3EE8B4A03F5FA5101F11801B7
:10D0C000B0EE64BAA7EE06BAF0EE4BBAFEEECABAFC
:10D0D0001BEE906A06F30F0922F8159032F91770CB
:10D0E0000AEE107AF8EECAAA03F5FA55AAEEA7BA24
:10D0F00005F11605C5F30D06A6EE8B7AB0EE49BA1A
:10D1000067EE06BABEEECA7AEAEEA7BA17EE105A72
:10D1100005F30F07B0EE6B7ABEEECA7A22F81E70E6
:10D1200017EE105A05F30F0922F8189032F916601D
:10D1300032F914800AEE106A9BEE84BAC1F30D0432
:10D1400003F53557F8EECABAB0EE45AA98EEABAA89
:10D1500007F11007C7F30D050AEE908A79EE8A9A57
:10D16000ABEE039A03F51B5101F11201A3EEA95A8C
:10D17000C1F30D0703EB0B08B8EEEA7A0CED049A45
:10D1800067EE27AAB0EE459AA6EEAA9AB0EE49BA83
:10D19000BEEECABA1BEE109A09F30F0622F814600D
:10D1A00032F915400BEE904AB8EEEB7AC8F30D0554
:10D1B000A7EE279AE6EE09AA26EEAAAAFEEECAAACA
:10D1C000A7EE27AA1AEE901A01F30F06F0EE65AA51
:10D1D000DAEE04AA22F81760BEEECAAAEAEE835A73
:10D1E0001AEE104A04F30F0722F815704CED035A9B
:10D1F00012D0591E4ABF03F57F530B463F33D90661
:10D200001D463FF42FAED0ED025A90ED06AA75EE02
:10D21000A2AA3AEE22BA41E6BDEC088B0360C0ED4B
:10D220000F4A80ED105ABDE8F08FC0ED0F4A80ED37
:10D23000105A70472DE9F04F2DED108BB0F97C801E
:10D240008BB081468B461746B8F1000F01F08C85F4
:10D25000B0F97E30002B41F08785B0F980000028BE
:10D2600001F09685B9F98220002A01F08F85D9F85E
:10D2700064529FEDF47AF448DFF8F0C39FEDF36A4F
:10D2800009EB8506D6ED0C7A099637EE870AFDEE96
:10D29000C00AF8EEE06A10EE90EA30EE661A0CEB87
:10D2A0008E03BEEECC1A93ED002A11EE104A00EB6D
:10D2B000840ADAED001A61EE822AAC00F4EEC62A86
:10D2C000F1EE10FA01F190859FEDE13ADFEDE13AE0
:10D2D00083EE22AAB4EEE3AAF1EE10FA01F34F8531
:10D2E000099A82ED24AA099EDB4A96ED0E4AF3EED6
:10D2F000004A24EE245AF6EE005ABDEEC58AF8EE36
:10D30000C88A18EE103A35EE689A990001F1040EB9
:10D31000B4EEE59A561802EB0E0AF1EE10FA79EE29
:10D32000099AD6ED00AADAED00BA05D53BEEEABAC5
:10D33000F0EE6ABAE9EE8BBA9FEDC2CA7BEE8CCAF8
:10D34000BDEEECDAF8EECDDA1DEE103A3CEEEDEA89
:10D350000CEB8306BEEECCEAD6ED00EA1EEE10AA78
:10D3600000EB8A0393ED00FA6FEE2EFA4FF0000AFD
:10D370008AEE2F7AB5EEC07AF1EE10FA01F140850F
:10D380009FEDB46A099EB4EEC67AF1EE10FAD8BFEA
:10D39000B0EE476A86ED266AB6EE000AB4EEC09A91
:10D3A000561802EB0E0AF1EE10FAD6ED120ADAED7B
:10D3B000127A05D577EEE06AF0EE607AE9EEA67AA9
:10D3C0009FEDA01A77EE811ABDEEE12AF8EEC22A8F
:10D3D00012EE103A31EEE23A0CEB8306BEEECC3A96
:10D3E000D6ED003A13EE10AA00EB8A0393ED004A43
:10D3F00064EE234A00268AEE245AB5EEC05AF1EEB6
:10D4000010FA01F1F784DFED935AB4EEE55AF1EE2C
:10D4100010FA09EB850AD4BF8AED285ACAED285ABA
:10D42000F6EE008AB4EEE89A1144F1EE10FA724476
:10D4300091ED248AD2ED246A05D536EEC89AF0EE35
:10D44000486AE9EE896A0021DFED7E9A76EEA9AAA4
:10D45000BDEEEABAF8EECBBA1BEE102A7AEEEBCAB2
:10D460000CEB820CFEEECCCA9CED00CA1CEE906A5E
:10D4700000EB860090ED00DA6DEE0CDA8AEE2DEA14
:10D48000B5EEC0EAF1EE10FA01F1A884DFED71EA21
:10D49000B4EEEEEAF1EE10FA09EB850ED4BF8EED94
:10D4A0002AEACEED2AEA099BDFED688A93ED24FA99
:10D4B00093ED129A93ED107ADFED68CADFED68BA4A
:10D4C0009FED68CAD3ED0ADADFED67AAF7EE00FA3E
:10D4D0008FEE8F0A2C4409EB84041E46B0EE008ABE
:10D4E000F0EE6F0AE0EE080ACFEE879A69EE201A96
:10D4F00020EE006AF4EEEF1AF1EE10FA88BFF0EEBB
:10D500006F1AF4EEE81AF1EE10FAB8BFF0EE681AEE
:10D5100021EEA12AB0EE6C1AF0EE6C2AA6EE2B1AC0
:10D52000E2EE2B2AF0EE4C7AB0EE4C4AE1EE067AAF
:10D53000A2EE224A27EE803A21EE845AB0EE04BAD7
:10D5400079EE833A75EE0B6AF0EE6F4AF0EE6F5AA1
:10D55000E3EE834AE6EE855A8FEEA4DA8FEEA5EA73
:10D560006FEE2A0A84ED643AC4ED659A84ED3C5A64
:10D57000B0EE6D0A84ED3DBA84ED66DA84ED3EEAE4
:10D58000FAF77EFEAA1C86ED2C0A09EB820ADAED78
:10D5900024EAC4ED6F9A8FEEAEFAB0EE6F1AAFEEDA
:10D5A000081A2FEE0F0A29EE012AB0EE6C7AB4EEBB
:10D5B000EF2AF1EE10FA88BFB0EE6F2AB4EEE82A37
:10D5C000F1EE10FAB8BFB0EE682A62EE023AB0EEA1
:10D5D0006C4AA0EE2B7AA3EEAB4AB0EE4C6AF0EEAA
:10D5E0004C4AA7EE006AE4EE234A66EE0F1A24EED8
:10D5F000825A79EEA17A35EE0BDAF0EE6F2AF0EE70
:10D600006F6AEDEE056AE7EEA12ACFEEA65A8FEE1D
:10D61000A23A6EEEAA0AC4ED485A84ED47BAC4EDA8
:10D620006E1A84ED703AB0EE6D0A84ED465AFAF740
:10D6300027FE291D8AED2C0A09EB8106D6ED240A66
:10D6400016E000BF00000043780702080000000059
:10D65000BE9FF44200007A4458C302088FBA2141A9
:10D6600049265F42DB0F49406F1203387C0B0208EA
:10D67000C4ED799A8FEEA0EAB0EE6F7AAEEE087A3A
:10D680006EEE0EEA69EE071AB0EE6CFAF4EEEF1ADF
:10D69000F1EE10FA88BFF0EE6F1AF4EEE81AF1EE30
:10D6A00010FAB8BFF0EE681A61EEA12AB0EE6C3A3B
:10D6B000AEEEABFAA2EEAB3AB0EE4C0AF0EE4C3A5C
:10D6C000AFEE2E0AE3EE223A20EE0E1A23EEA14A26
:10D6D00039EE816A74EE0B4AB0EE6F2AB0EE6F5AE3
:10D6E000A6EE012AA4EE845ACFEE827A8FEE85DA76
:10D6F00060EEAA0A84ED51BA84ED781AC4ED7A7A04
:10D70000B0EE6D0A84ED504A84ED52DAFAF7B8FDB6
:10D71000A81D86ED2C0A09EB800AB0EE6D0ADAED41
:10D7200024DAC4ED839A8FEEADEA6DEEAA0AF0EE2C
:10D730006FAAEEEE08AAF0EE6C5A2AEE898A2EEE57
:10D740000E9AB4EEEF8AF1EE10FA88BFB0EE6F8A4F
:10D75000B4EEE88AF1EE10FAB8BFB0EE688A68EE6F
:10D76000088AE9EE2B5AE8EEABCAF0EE4CBAE9EEC5
:10D7700025BAA8EEACCA6EEE2BCA28EE0CCA84ED10
:10D780005BBA7CEEA99A3CEE0BBAF0EE6F6AF0EE53
:10D790006FEAECEEA96AECEE0BEA8FEEA6FA8FEEDA
:10D7A000AE7AC4ED82CA84ED5ACA84ED84FA84ED5F
:10D7B0005C7AFAF765FD8AED2C0AB8F1000F31D0DA
:10D7C000B9F97E3073BB3D4C3D493E4A2668A9F805
:10D7D0007E8001FB062001FB002801FB0823D9ED18
:10D7E0001EFADFED390A236001EE100A06EE108AF8
:10D7F00007EE903A3FEEAF0AF8EE411AB8EE462A2D
:10D80000F8EE672A20EE0AAA21EEA03A62EE203A4C
:10D8100022EEA04A89ED1BAA89ED213AC9ED223AF0
:10D8200089ED234A099C9FED295AD4ED164A9FEDB4
:10D8300028DA9FED28EA9FED288A64EE85DAF7EE74
:10D84000008A6DEEADAAF0EE68BAAAEE8DEA791EF6
:10D850000191C9ED928AAAEE8E8A2DEE889A79EE10
:10D86000285A89ED919AE9EE25BAC8EEABCAC9EDFE
:10D8700093CA002F01F0AD8209EE905A002D0F4D92
:10D880009FED16CA2A689FED16BADFED16AA089218
:10D890000BF10807F8EEE9BAD9E9008ADFED129A30
:10D8A000029714BFF0EE4CFAF0EE68FAB6EE008A7A
:10D8B000B3EE0B9AB2EE02AA01F0FBB91000002001
:10D8C0000D6619005FF36E3C00F07935CDCCCC3E8F
:10D8D00049265F428FBA2141DB0F4940000000001A
:10D8E0003333333F0AD7A3399A99993E000048430E
:10D8F0005FED02CA2DEE2CCAFDEECCEAF8EEEE6A20
:10D900001EEE90EA3CEE66FA3FEE687AC6440EF6EA
:10D91000A4730EF6A574C3F30D00C4F30D010EF647
:10D92000A3770EF6A6750AEB800BC7F30D02C5F3BD
:10D930000D0ECCF30D060AEB810CDBED000A9CED1D
:10D94000000A029F0AEB82030AEB8E00D3ED001A55
:10D9500090ED006A099830EEC01A30EE613A76EE2A
:10D96000603AF0EE417AE3EE087A08F6A474C4F364
:10D970000D01A3EE881A0AEB810B08F583520D32D4
:10D9800037EE814AC2F30D05D4EE077A0AEB850C17
:10D9900008F500540E3467EE8F4AC4F30D03E3EE2E
:10D9A000084A0AEB830E0AEB86060396E4EE8F0A1A
:10D9B000EEEE202ACBED002A99ED8CDA99ED8D5A06
:10D9C00099ED90EAD9ED8FDAD9ED8ECA7DEE055A40
:10D9D000B0EE4ECAA5EEADCA6DEE2CEA72EECC6A80
:10D9E000E6EEAEDAADEE2DEAB0EE6DFAB0EE4E7ABE
:10D9F000A6EEAEFAADEE2D7A89ED8FFA89ED907A2A
:10DA000057ED020A30EE8E0A8CED000A17ED011A6E
:10DA100071EE0E1ACEED001A90ED163AD9ED912A5C
:10DA200099ED926AD9ED956A99ED94DAD9ED93DA88
:10DA300099ED96EAD9ED985AD9ED97CA99ED24CA8D
:10DA400072EE867A78EEC33AB0EE664AA7EE8D4A59
:10DA500063EEA94A24EEA45A95EE024A22EEAD2ABC
:10DA6000A4EE02DAE2EE8D6AF0EE4DEAEEEE265A10
:10DA7000B0EE66FAE5EEEC6AE4EE02EA76EEA87A3B
:10DA80006EEE260A27EE8C0AA2EE8DFABDEEC01AC3
:10DA9000E5EEAC0A11EE107A4744791CC1F30D058E
:10DAA0007B1E0AEB850BC3F30D00C9ED94EABB1C8A
:10DAB00089ED95FAC9ED980AC7F30D079BED006A49
:10DAC000D9ED146AD9ED3C0A9CED00EAC3F30D05CB
:10DAD0000AEB870BDBED002A0AEB80010AEB8500DD
